:020000040800F2
:100000001024022049F20008C94D0008CB4D000819
:10001000CF4D0008D34D0008D74D00080000000068
:10002000000000000000000000000000C501000802
:10003000DB4D000800000000190200081B49000801
:100040006DF200086DF200086DF200086DF2000814
:100050006DF200086DF200086DF200086DF2000804
:100060006DF200086DF200086DF200086DF20008F4
:100070006DF200086DF200086DF200086DF20008E4
:100080006DF200086DF200086DF200086DF20008D4
:100090001D7900086DF200086DF200086DF200088D
:1000A0006DF200086DF200086DF200086DF20008B4
:1000B0006DF20008354900086DF200086DF2000885
:1000C0006DF200086DF200086DF200086DF2000894
:1000D0006DF20008213A0008A77F0008A77D0008FC
:1000E000292900086DF200086DF200086DF2000881
:1000F0006DF200086DF200086DF200086DF2000864
:100100006DF200086DF200086DF200086DF2000853
:100110006DF200086DF200086DF200086DF2000843
:100120006DF200086DF200086DF200086DF2000833
:100130006DF200086DF200086DF200086DF2000823
:10014000577A00086DF200086DF200086DF20008A1
:100150006DF200086DF200086DF200088785000856
:100160006DF200086DF200086DF200086DF20008F3
:100170006DF200086DF200086DF20008000000004A
:100180006DF200086DF200085F8D00086DF2000846
:100190006DF200086DF200086DF200086DF20008C3
:1001A00000000000000000006DF20008DFF810D031
:1001B0000FF018FC00480047A54D0008AFF3008081
:1001C000102402202A4B19680868B0E8F04F80F329
:1001D0000988BFF36F8F4FF0000080F311887047DC
:1001E0000000000006480068006880F3088862B6D6
:1001F00061B6BFF34F8FBFF36F8F00DF00BF00BF4B
:1002000008ED00E0DFF80C00016841F470010160C6
:10021000704700BF88ED00E0EFF30980BFF36F8FF8
:10022000134B1A681EF0100F08BF20ED108A20E94A
:10023000F04F106008B44FF0500080F31188BFF306
:100240004F8FBFF36F8F0AF00EFC4FF0000080F36A
:10025000118808BC19680868B0E8F04F1EF0100F4C
:1002600008BFB0EC108A80F30988BFF36F8F704726
:10027000C4020020EFF3058070470000012002490E
:100280000870002048707047000000202DE9FC41F4
:1002900004460D4616461F46ADF80040ADF8025024
:1002A000ADF80460ADF80670002004F09EF940B18E
:1002B0000020ADF80000ADF80200ADF80400ADF884
:1002C000060004236A46D901FE4807F0F3FBBDE8A7
:1002D000FC819FEDFD1AB0EE410A9FEDFC1AF0EE95
:1002E000410AFB48006C008801EE100AB8EE411A82
:1002F000F0EE410AF4EEC00AF1EE10FA07D280EEF9
:10030000801A21EE011AF24880ED141A04E0B7EECB
:10031000001AEF4880ED141A704710B52DED0E8BC2
:10032000EB4890F8580002281AD1002015E000EBA5
:10033000400101EB0012E6495C3101EBC20191ED95
:10034000110A00EB400101EB0012E1495C3101EBC5
:10035000C20181ED120A411CC8B20328E7DD90E119
:10036000DB4890F8580020B1D94890F8580001288F
:100370007ED1D748D0F8BC0290ED000ADFEDD50A57
:1003800030EE200A10EE101A08460FF0C7F941ECC3
:100390001B0B9FEDD10B53EC102B0FF032F941ECFE
:1003A0001A0B9FEDCF0B53EC102B0FF0B8F841EC6C
:1003B000190B0FF0DFF90446C54890ED010A10EE65
:1003C000101A08460FF0AAF941EC1C0B20460FF05A
:1003D000A5F941EC1E0BB0EE4E0AF0EE6E0A10F0DD
:1003E000F7FBB0EE40DAF0EE60DA53EC1C2B51EC88
:1003F0001D0B0FF094F841EC1A0BB54890ED000A74
:1004000010EE101A08460FF089F941EC1C0B20463B
:100410000FF084F941EC1E0BB0EE4E0AF0EE6E0ABE
:1004200010F072FBB0EE40DAF0EE60DA53EC1C2B09
:1004300051EC1D0B0FF073F841EC1B0B53EC1A2B16
:100440000FF067F841EC190B0FF094F9A049C86060
:10045000084690ED010A10EE101A08460FF05EF9FA
:1004600041EC1C0B20460FF059F941EC1E0B00E04B
:10047000F5E0B0EE4E0AF0EE6E0A10F045FBB0EE7D
:1004800040DAF0EE60DA53EC1C2B51EC1D0B0FF050
:1004900046F841EC1A0B8E4890ED000A10EE101A47
:1004A00008460FF03BF941EC1C0B20460FF036F9E3
:1004B00041EC1E0BB0EE4E0AF0EE6E0A10F088FB17
:1004C000B0EE40DAF0EE60DA53EC1C2B51EC1D0B71
:1004D0000FF025F841EC1B0B53EC1A2B0EF078FFB4
:1004E00041EC190B0FF046F979490861084690ED87
:1004F000020A80ED050A90ED030AD0ED040A30EE01
:10050000600AD0ED050A30EE600A80ED3C0A90EDFD
:10051000030AD0ED040A30EE200AD0ED050A30EED1
:10052000600A80ED620A90ED030AB1EE400AD0ED58
:10053000040A30EE200AD0ED050A30EE600A80EDA4
:10054000880A90ED030AB1EE400AD0ED040A30EEBD
:10055000600AD0ED050A30EE600A80EDAE0A90ED3B
:100560002F1AF0EE410A90ED3C1AB0EE410A9FEDD1
:100570005E1A06F029F8564890ED551AF0EE410A39
:1005800090ED621AB0EE410A9FED571A06F01CF882
:100590004F4890ED7B1AF0EE410A90ED881AB0EECC
:1005A000410A9FED511A06F00FF8494890EDA11A43
:1005B000F0EE410A90EDAE1AB0EE410A9FED4A1AF4
:1005C00006F002F8424890ED3C1AF0EE410A90ED38
:1005D0002F1AB0EE410A5C3006F095FA3C4890EDD7
:1005E000621AF0EE410A90ED551AB0EE410AF4306D
:1005F00006F089FA364890ED881AF0EE410A90ED3F
:100600007B1AB0EE410A00F5C67006F07CFA30485D
:1006100090EDAE1AF0EE410A90EDA11AB0EE410A4B
:1006200000F5097006F06FFA002015E000EB4001BC
:1006300001EB001226495C3101EBC20191ED0A0A7F
:1006400000EB400101EB001221495C3101EBC201DA
:1006500081ED120A411CC8B20328E7DD11E0002039
:100660000DE09FED1A0A00EB400101EB0012184962
:100670005C3101EBC20181ED120A411CC8B20328B2
:10068000EFDD1348D0ED290AB0EE600A06F011F84C
:10069000F0EE408A0E48D0ED4F0AB0EE600A06F048
:1006A00008F878EE808A0A48D0ED750AB0EE600A44
:1006B00005F0FFFF78EE808A0548D0ED9B0AB0EE8A
:1006C000600A13E000640040000070420000000077
:1006D0004C0300200000FA42000000000080664049
:1006E00000000060FB2109400000C84205F0E1FF66
:1006F00038EE808AFD4890ED130AD0ED140A20EE02
:10070000200AB4EEC80AF1EE10FA26D2D0ED130A90
:1007100090ED141A60EE810A80EE881AB0EE410A5C
:10072000002017E000EB400101EB0012EF495C31C3
:1007300001EBC201D1ED0A0A60EE800A00EB400134
:1007400001EB0012E9495C3101EBC201C1ED0A0A7B
:10075000411CC8B20328E5DD00BF00201AE000EB11
:10076000400101EB0012E1495C3101EBC20191ED66
:10077000120ABDEEC00A10EE101A0AB200EB4001D8
:1007800001EB0013D9495C3101EBC301A1F85C20F6
:10079000411CC8B20328E2DDBDEC0E8B10BD10B5C4
:1007A000D348007D00F0100060B9D148007D00F012
:1007B000200038B9CE48807A012807D1CC48C07AC9
:1007C000022803D10120C94981F8C002C74890F826
:1007D000C00201280DD19FEDC70AC44880ED130A5D
:1007E0009FEDC50A80ED060A9FEDC30A80ED070A5A
:1007F0000CE09FEDC20ABD4880ED130A9FEDC00AD0
:1008000080ED060A9FEDBE0A80ED070AB748D0EDDD
:10081000081AB0EE611AD0ED081AF1EE611AF0EE86
:10082000610AD0ED021AB0EE610A06F02CF8AF486A
:1008300080ED020AD0ED061AB0EE611AD0ED061A6C
:10084000F1EE611AF0EE610AD0ED001AB0EE610A25
:1008500006F019F8A54880ED000AD0ED071AB0EEB1
:10086000611AD0ED071AF1EE611AF0EE610AD0EDCF
:10087000011AB0EE610A06F006F89C4880ED010A04
:1008800010BD10B59948D0ED2D0AB0EE600AC03009
:1008900005F023FE954880ED2F0AD0ED530AB0EE07
:1008A000600A00F5AC7005F018FE904880ED550A1E
:1008B000D0ED790AB0EE600A00F5F87005F00DFE93
:1008C0008A4880ED7B0AD0ED9F0AB0EE600A00F501
:1008D000227005F002FE854880EDA10A10BD834814
:1008E00090F85800814991F85910884211D07F48FA
:1008F00090F858007D4981F85900084690F8580052
:1009000038B90846D0F8BC0290ED000A084680EDE0
:10091000B10A704710B504467448D0F8A4030069C2
:1009200020B17249D1F8A413086980476F48C0F814
:10093000A44300206D4981F8A8030846D0F8A40319
:10094000407881F858000846D0F8A403C06818B170
:10095000D1F8A413C868804710BD10B5694C07E0F2
:100960006068804718B12046FFF7D4FF05E01834CF
:100970005E48D0F8A403A042F2D800BF5B49D1F88A
:10098000A4138868804780B15848D0F8A44307E092
:100990006068804718B12046FFF7BCFF10BD1834CF
:1009A000584890308442F3D300E0F7E755481830B8
:1009B000FFF7B0FF00BFF1E7F0B505ACD0CC089D64
:1009C00030B1002904DB062902DA0BB104B105B904
:1009D000F0BD0170456143608460C660076142708C
:1009E00000BFF5E71FB5484840494864001D08644A
:1009F00002F04CFF3D4948629FED410A084680EDF8
:100A0000060A9FED3F0A80ED070A9FED3D0A80ED43
:100A1000080A3C21A0F848109FED380A80ED130A1F
:100A2000002180F854100220304981F8580081F8E4
:100A3000590013212D4880F8B01080F8481180F833
:100A4000E01180F8781290EDB20AF0EE403A012100
:100A5000BFEE004A9FED2D3A5FEDE42A9FED2C2A70
:100A6000DFED2C1AB2EE041A5FEDE80AB1EE080AC7
:100A700000F5347005F0E2FF0021BFEE004AFFEE02
:100A8000003AB3EE0A3AFFEE002A9FED232A5FED0B
:100A9000F11A1FEDEB1AF5EE000A1FEDF50A1348E7
:100AA0005C3005F0CBFF0021BFEE004AFFEE003ABC
:100AB000B3EE0A3AFFEE002A9FED172A5FEDFD1A0A
:100AC0001FEDF71AF5EE000A9FED140A0748F430FF
:100AD00005F0B4FF0021BFEE004AFFEE003AB3EE8E
:100AE0000A3AFFEE002A9FED0C2A19E04C03002081
:100AF0001410002000401C470000FA430050C34679
:100B00000000C84360060020B8130020CDCC8C4004
:100B100000007A43CDCC4C3F00007A460000704282
:100B2000DFEDC11A9FEDC11AF5EE000A1FED050AAF
:100B3000BF4805F083FF0021BFEE004AFFEE003AF8
:100B4000B3EE0A3AFFEE002A1FED0D2ADFEDB61ACA
:100B50009FEDB61AF5EE000A1FED100AB448983062
:100B600005F06CFFDFEDB30AB7EE000AB048CC38F1
:100B700005F096FCDFEDAF0AB7EE000AAC4834385A
:100B800005F08EFCDFEDAB0AB7EE000AA848643032
:100B900005F086FCDFEDA70AB7EE000AA448FC309A
:100BA00005F07EFCA448A549C1F8BC029FEDA40A4B
:100BB000084680EDB20A9FEDA30A80EDB30AA24871
:100BC0000021A24BCDE90031A14B0122CDE9021059
:100BD000A048FFF7F1FEA0480021A04BCDE900316D
:100BE0009F4B0222CDE9021001219A481830FFF7ED
:100BF000E3FE9C4800219C4BCDE900319B4B022237
:100C0000CDE90210114693483030FFF7D5FE9848E1
:100C10000021984BCDE90031974B0122CDE902101C
:100C200003218C484830FFF7C7FE94480021944BBD
:100C3000CDE90031934B0122CDE902100421854812
:100C40006030FFF7B9FE90480021904BCDE90031AC
:100C50008F4B0A46CDE9021005217E487830FFF718
:100C6000ABFE7C4818307549C1F8A4031FBD08B518
:100C7000FFF7B8FE042009F0C6FD0AF0F3F8009073
:100C8000D1E06E4890ED2F0A824880ED000A6B4853
:100C900090ED550A804880ED000A684890ED7B0A87
:100CA0007E4880ED000A654890EDA10A7C4880ED01
:100CB000000A7C4890ED020ABCEEC00A10EE100A51
:100CC0007949088077488089784908805B48D0F85E
:100CD000BC0290ED000ABCEEC00A10EE100A744986
:100CE0000880564890EDB10ABCEEC00A10EE100A1A
:100CF0006E490880FFF731FEFFF7F1FDFFF7C1FDF8
:100D00004E48D0F8A403407802280DD14B48D0F8C3
:100D1000A403504BAC3BA3F19802A2F198014469A3
:100D2000A1F19800A04714E04448D0F8A40340780B
:100D300028B14248D0F8A4034078012809D13F489F
:100D4000D0F8A40300233D4A0832111F4469081F4C
:100D5000A047FFF724FD3948283002F0CDFEFFF709
:100D6000DCFA3648006C0088524901EB800090EDB7
:100D7000000A324880ED140AFFF7ABFA2F4CB4F9A1
:100D8000804200EE104AB8EEC00A2C4CD4ED140A92
:100D900020EE200ABDEEC00A10EE104A23B2274C06
:100DA000B4F9E84100EE104AB8EEC00A234CD4ED85
:100DB000140A20EE200ABDEEC00A10EE104A22B23C
:100DC0001E4CB4F9504100EE104AB8EEC00A1B4C5C
:100DD000D4ED140A20EE200ABDEEC00A10EE104A2F
:100DE00021B2164CB4F9B84000EE104AB8EEC00A71
:100DF000124CD4ED140A20EE200ABDEEC00A10EE0B
:100E0000104A20B2FFF742FA0C4CB4F98032B4F920
:100E1000E821B4F95011B4F9B800FFF737FA04210A
:100E2000684609F08CFC2CE7000000000000C84276
:100E3000D804002000002042A80B00204C03002012
:100E400000003443000034C3C10E0008BD0E00088A
:100E5000B90E0008600600200D100008FD0F000804
:100E6000AF0F000861100008511000082F10000893
:100E7000E3100008B71000088B10000841130008A9
:100E80002F1300081D1300088D1400088914000892
:100E9000851400080C000020100000201400002021
:100EA00018000020B01300200400002006000020DD
:100EB00008000020781C01080120704700207047BE
:100EC0002DE9F0412DED068B04460D4616461F46D2
:100ED000002003F08AFB10B90CB105B17EB99FED7B
:100EE000FA0A84ED000A9FEDF80A85ED000A9FEDED
:100EF000F60A86ED000ABDEC068BBDE8F081F348EA
:100F0000807A022851D1F148C07A02284DD1EF49A8
:100F1000B1F900000EF0E4FB41EC1A0B9FEDEC0B75
:100F200053EC102B0EF06DFB41EC190B9FEDEA0B0F
:100F300053EC102B0EF0F3FA41EC180B0EF01AFCE8
:100F40002060E249B1F902000EF0CAFB41EC1A0B35
:100F50009FEDDF0B53EC102B0EF053FB41EC190B04
:100F60009FEDDF0B53EC102B0EF0D9FA41EC180B70
:100F70000EF000FC2860D549B1F904000EF0B0FB7A
:100F800041EC1A0B9FEDD20B53EC102B0EF039FBFA
:100F900041EC190B9FEDD00B53EC102B0EF0BFFA68
:100FA00041EC180B0EF0E6FB306000BFA3E710B574
:100FB000002003F01AFB78B9032003F016FB58B9A0
:100FC000042003F012FB38B9052003F00EFB18B91A
:100FD000062003F00AFB08B1012010BDC24840788A
:100FE000022804DAC0480078012800D1F5E7BE489D
:100FF000007808B90120F0E70020EEE710B5FFF710
:10100000D6FF08B1002010BD0120FCE79FEDAE0A1D
:1010100080ED000A9FEDAC0A81ED000A9FEDAA0A5F
:1010200082ED000A9FEDA80A83ED000A7047AE48E2
:101030004078022803D1AC480078012804D0AB489E
:1010400090F8B400022801D1012070470020FCE78D
:1010500000B5FFF7ECFF08B1002000BD0120FCE760
:1010600030B59FED990A80ED000A9FED970A81ED5A
:10107000000A9FED950A82ED000A9FED930A83ED29
:10108000000A0324984D6C7030BD9048808A00F4AB
:10109000007060B98D48807A02280AD18B48C07AE6
:1010A000022806D1924890F83300022801D001208E
:1010B00070470020FCE78548808A00F4806060B9B2
:1010C0008248807A02280AD18048C07A032806D153
:1010D000874890F83300032801D001207047002092
:1010E000FCE72DE9F0412DED0A8B05460E4614462E
:1010F0001F460DB106B11CB9BDEC0A8BBDE8F081ED
:101100007248007D00F0010048B17A4890ED000A75
:10111000F0EE000A30EE200A80ED000A13E06B4882
:10112000007D00F0020048B1724890ED000AF0EE38
:10113000000A30EE600A80ED000A04E09FED620ACA
:101140006C4880ED000A6148007D00F0040048B161
:10115000694890ED000AF0EE000A30EE600A80ED7A
:10116000000A13E05948007D00F0080048B16248C9
:1011700090ED000AF0EE000A30EE200A80ED000A41
:1011800004E09FED510A5C4880ED000A4F48808AD8
:1011900000F4007028B1B7EE000A584880ED000A4C
:1011A00004E09FED490A554880ED000A534890ED50
:1011B000000AB5EEC00AF1EE10FA04D19FED500A14
:1011C00084ED000A32E04A48D0F8BC0290ED000AF3
:1011D00010EE101A08460EF0A1FA41EC1C0B9FED20
:1011E000490B53EC102B0EF00CFA41EC1B0B9FED4E
:1011F000470B53EC102B0EF092F941EC1A0BB0EEAA
:101200004A0AF0EE6A0A0FF07FFCB0EE409AF0EE68
:10121000609A9FED400B53EC102B51EC190B0EF024
:101220007EF941EC180B0EF0A5FA206031480068F9
:101230000EF074FA41EC190B2449B1F902000EF0DA
:101240004FFA41EC1C0B9FED220B53EC102B0EF0D0
:10125000D8F941EC1B0B9FED2F0B53EC102B0EF02C
:101260005EF941EC1A0B53EC192B0EF0B1F841EC7E
:10127000180B0EF07FFA28601F4800680EF04EFA37
:1012800041EC190B1149B1F900000EF029FA41ECBB
:101290001C0B9FED0F0B53EC102B0EF0B2F941EC31
:1012A0001B0B9FED1C0B53EC102B0EF038F941EC8F
:1012B0001A0B53EC192B0EF08BF841EC180B0EF0B7
:1012C00059FA306000BF17E700000000141000203A
:1012D0000000000000A0844000000000000079C071
:1012E000000000000000794000000020F806002007
:1012F0004C0300201C0000202000002024000020BF
:1013000000004843000000000080664000000060CC
:10131000FB2109400000000000006940D348808A9A
:1013200000F4006008B1012070470020FCE7CF48BE
:10133000808A00F4806008B1012070470020FCE73B
:101340002DE9F0412DED0A8B04460D4616461F4649
:10135000C648007D00F0010048B1C54890ED000A84
:10136000F1EE040A30EE200A80ED000A13E0BF48D7
:10137000007D00F0020048B1BD4890ED000AF1EE9A
:10138000040A30EE600A80ED000A04E01FED320A24
:10139000B74880ED000AB548007D00F0040048B170
:1013A000B44890ED000AF1EE040A30EE600A80EDD8
:1013B000000A13E0AD48007D00F0080048B1AD48D8
:1013C00090ED000AF1EE040A30EE200A80ED000AEA
:1013D00004E01FED430AA74880ED000AA448006816
:1013E0000EF09CF941EC190BA049B1F902000EF086
:1013F00077F941EC1C0B1FED4A0B53EC102B0EF050
:1014000000F941EC1B0B1FED4A0B53EC102B0EF0B7
:1014100086F841EC1A0B53EC192B0DF0D9FF41EC77
:10142000180B0EF0A7F92060924800680EF076F9CC
:1014300041EC190B8D49B1F900000EF051F941EC66
:101440001C0B1FED5D0B53EC102B0EF0DAF841EC8A
:101450001B0B1FED5D0B53EC102B0EF060F841ECF5
:101460001A0B53EC192B0DF0B3FF41EC180B0EF0D7
:1014700081F928601FED6C0A86ED000ABDEC0A8B2D
:10148000BDE8F08101207047002070472DE9F04150
:101490002DED0C8B04460D4616461F460CB105B1CA
:1014A0001EB9BDEC0C8BBDE8F0817048007D00F0EA
:1014B000010048B1704890ED000AF0EE000A30EEED
:1014C000200A80ED000A13E06848007D00F0020069
:1014D00048B1694890ED000AF0EE000A30EE600A6B
:1014E00080ED000A04E01FED880A634880ED000AE1
:1014F0005E48007D00F0040048B1604890ED000AAD
:10150000F0EE000A30EE600A80ED000A13E0574862
:10151000007D00F0080048B1584890ED000AF0EE58
:10152000000A30EE200A80ED000A04E01FED9A0A5E
:10153000524880ED000A524890EDB20AB0EE402ABF
:1015400090EDB30AF0EE401A90EDB10AF0EE400AC9
:101550009FED4C1A1FEDA40A05F069F8484880ED8C
:10156000B10A90EDB11AF0EE410AD0F8BC0290ED4C
:10157000001AB0EE410A444805F0C5FA3E4800683A
:101580000EF0CCF841EC1A0B3849B1F902000EF01C
:10159000A7F841EC1D0B1FEDB20B53EC102B0EF016
:1015A00030F841EC1C0B1FEDB20B53EC102B0DF07F
:1015B000B6FF41EC1B0B53EC1A2B0DF009FF41EC6D
:1015C000190B0EF0D7F808EE100AD4ED000AB0EEB1
:1015D000600A9FED2C1AF0EE480A04F0F5FF84ED46
:1015E000000A264800680EF099F841EC1B0B1F49D1
:1015F000B1F900000EF074F841EC1D0B1FEDCC0B9F
:1016000053EC102B0DF0FDFF41EC190B1FEDCC0B33
:1016100053EC102B0DF083FF41EC1C0B53EC1B2BF8
:101620000DF0D6FE41EC1A0B0EF0A4F808EE100AED
:10163000D5ED000AB0EE600A9FED121AF0EE480AEE
:1016400004F0C2FF85ED000A0D4890EDBE1AF0EEE1
:10165000410A96ED001AB0EE410A9FED0A1A04F015
:10166000B3FF86ED000A00BF1BE700001410002046
:10167000280000202C000020300000203400002032
:101680004C030020EC51383F1C0600202DE9F041AE
:1016900006460F4614461D46042E04D194ED550A05
:1016A00084ED560A78E0012E00D0E6BB04F59E7169
:1016B00001EB860191ED001AF0EE410A04F59A71F2
:1016C00001EB860191ED001AB0EE410A06EB06121D
:1016D00004F1180101EBC20101F1440005F013FA15
:1016E00006EB061104F1180000EBC10090ED1B0A97
:1016F00004F5A67000EB860080ED000A04F5A671E3
:1017000001EB860191ED001AB1EE411AF0EE410AAB
:1017100004F5A27101EB860191ED001AB0EE410AC9
:1017200006EB061200E010E004F1180101EBC20024
:1017300005F0E9F906EB061104F1180000EBC10011
:1017400090ED0A0A84ED560A26E0022E10D194ED9F
:10175000531AF0EE410A94ED511AB0EE410A04F129
:10176000180005F0D0F994ED100A84ED560A13E044
:10177000032E11D194ED541AB1EE411AF0EE410A44
:1017800094ED521AB0EE410A04F1A00005F0BBF945
:1017900094ED320A84ED560A94ED560ABDEEC00A65
:1017A00010EE100A00B22082042F04D195ED550AE4
:1017B00085ED560A74E0012F00D0E7BB05F59E7158
:1017C00001EB870191ED001AF0EE410A05F59A71DF
:1017D00001EB870191ED001AB0EE410A07EB071209
:1017E00005F1180101EBC20101F1440005F08BF98C
:1017F00007EB071105F1180000EBC10090ED1B0A83
:1018000005F5A67000EB870080ED000A05F5A671CE
:1018100001EB870191ED001AF0EE410A05F5A27186
:1018200001EB870191ED001AB0EE410A07EB0712B8
:1018300005F1180100E00EE001EBC20005F063F9CC
:1018400007EB071105F1180000EBC10090ED0A0A43
:1018500085ED560A24E0032F10D195ED541AF0EED1
:10186000410A95ED521AB0EE410A05F1A00005F0CB
:101870004AF995ED320A85ED560A11E0022F0FD193
:1018800095ED531AF0EE410A95ED511AB0EE410A6A
:1018900005F1180005F037F995ED100A85ED560AA7
:1018A00095ED560ABDEEC00A10EE100A00B228826D
:1018B000BDE8F0812DE9F0412DED048BFA4890F858
:1018C0008C63012E00D0DEB9F848D0ED4B1AB0EE93
:1018D000611AD0ED4C1AF0EE610A00F59E7000EB33
:1018E0008600D0ED001AB0EE610A04F0ECFFF3EED2
:1018F0000E0A30EE600AEE4800EB860080ED000A2A
:10190000E94890F8D400012807D0E74890F8D400BF
:1019100018B1BDEC048BBDE8F081E34890F8D40029
:1019200001280AD1B4276FF0B308DF48D0ED7B8AD5
:1019300090ED7C8A00F5007469E0DB4890F8D400F3
:10194000002864D1DB4CB4276FF0B308D648D0ED43
:101950007B0A90ED7E1A70EEC10AB0EE600A9FED30
:10196000D61ADFEDD60A04F0AEFFB0EE409ACE48AC
:10197000D0ED7C0A90ED7E1A70EEC10AB0EE600ADE
:101980009FEDCD1ADFEDCD0A04F09DFFF0EE409AF9
:10199000DFEDCB0A89EE200ADFEDC90A20EE200A2E
:1019A000B0EE409ADFEDC60A89EEA00ADFEDC40A68
:1019B00020EE200AF0EE409ABB48D0ED7D0A70EE92
:1019C000890AB0EE600A9FEDBC1ADFEDBC0A04F094
:1019D0007AFFF0EE408AB448D0ED7D0A70EEA90A95
:1019E000B0EE600A9FEDB41ADFEDB40A04F06BFFAD
:1019F000B0EE408AF4EEC88AF1EE10FA06D2B0EEEC
:101A0000680AF0EE488AB0EE408A00BF00BF07EBDC
:101A1000080000EBD07149100DB2A7EB080000EBF5
:101A2000D071491000EE101AB8EEC00A78EEC80A5C
:101A3000B4EEE00AF1EE10FA29D294ED000AB4EE09
:101A4000C80AF1EE10FA0DDDD4ED000A00EE105ACE
:101A5000B8EEC00AF4EEC00AF1EE10FA02D284ED3C
:101A6000008A20E094ED000AB4EEE80AF1EE10FAE4
:101A700019D2D4ED000A00EE105AB8EEC00AF4EE06
:101A8000C00AF1EE10FA0EDDC4ED008A0BE0D4EDD1
:101A9000000AB0EE600AB0EE681AF0EE480A04F0F0
:101AA000F2FE84ED000A00BF33E70246501AB0F59B
:101AB000805F03DDA0F5F850FF3805E010F5805F8A
:101AC00002DA41F6FF73184400EE100AB8EEC00ABD
:101AD000DFED7C0A20EE200A704710B5044604B9F9
:101AE00010BDE06990ED0A0A84ED7D0AB4F8E811B2
:101AF000C622125B90B2FFF7D8FFB1EE400A84ED28
:101B00007E0AE06990ED000A84ED810A94ED810A75
:101B100084ED820AB4F8A01440F27E32125B90B2D7
:101B2000FFF7C3FFB1EE400A04F55E7080ED4D0A89
:101B3000B4F8A01440F27E32125B90B2FFF7B5FF0A
:101B4000B1EE400A04F55E7080ED4E0AE06990ED5A
:101B5000020AF3EE0E0A20EE200A04F55E7080ED14
:101B6000510A90ED510A80ED520A00BFB8E74E4885
:101B700090F8D40054490978884223D04A4991F812
:101B8000D400012800D058B94A49083901EB800136
:101B900091ED000A474901EB800181ED000A0EE05A
:101BA000032805D19FED490A3F4981ED840A06E0EB
:101BB000022804D19FED450A3B4981ED830A424941
:101BC000087000BF384890F88C0341490978884272
:101BD00023D0354991F88C03012800D058B93449F5
:101BE000083901EB800191ED000A314901EB8001D8
:101BF00081ED000A0EE0032805D19FED340A2B4940
:101C000081ED540A06E0022804D19FED300A2749ED
:101C100081ED530A2E49087000BF704710B5044685
:101C20002148D0F8B000406920B11F49D1F8B01068
:101C3000486980471C48C0F8B04000201A4981F824
:101C4000B5006178184880F88C13217880F8D4109A
:101C500000200DE000EB40021349203101EBC201EE
:101C6000A14203D1104981F8B40003E0411CC8B27D
:101C70000628EFDB00BF0C48D0F8B000006920B1A7
:101C80000949D1F8B0100869804710BD10B5064C5D
:101C9000203420E0A068E8B1A0688047D0B1204699
:101CA000FFF7BCFF10BD0000F8060020700A0020FE
:101CB000AC0B0020F408002000003443000034C3C3
:101CC0000000B443A105343D6C000020000000007A
:101CD0006D0000201834F948D0F8B000A04203D0BD
:101CE000F648B0308442D5D1F448D0F8B000C0688E
:101CF000D0B1F249D1F8B010C8688047A0B1EF4820
:101D0000D0F8B04009E0A06830B1A068804718B1B1
:101D10002046FFF783FF10BD1834E848B0308442F6
:101D2000F1D17838FFF77AFF00BFF4E7F0B505ACE2
:101D3000F0CC0BB104B105B9F0BD43608460C5605F
:101D4000066147610170427000BFF5E710B50021E0
:101D50009FEDDB4ADFEDDB3A9FEDDA3A5FED252AB6
:101D60009FEDD92A5FED271A9FEDD81AF0EE040AED
:101D70009FEDD70AD74804F061FE01211FED2D4ADF
:101D80005FED333A1FED2F3A5FED302A9FEDD02AF9
:101D90005FED321AB2EE001AF6EE000AB1EE000A5A
:101DA000CC48443004F04AFE00219FEDC54ADFEDE7
:101DB000C43A9FEDC93A5FED3B2A9FEDC32A5FED20
:101DC0003D1A1FED3E1AF0EE040A9FEDC40AC14809
:101DD000883004F033FE01211FED444A5FED4A3A9A
:101DE0001FED463A5FED472A9FEDB92A5FED491A8C
:101DF000B0EE001A5FED4B0AB1EE040AB548CC30E4
:101E000004F01CFE00219FEDAE4AF1EE043AB0EE64
:101E1000003A5FED522A9FEDAC2A5FED541A9FED18
:101E2000A91ADFEDAF0A9FEDAF0AA448D83004F03D
:101E300005FE01211FED5B4A5FED613A1FED5D3A42
:101E40005FED5E2AB1EE042A5FED601A9FEDA61ADF
:101E5000DFEDA60A9FEDA60AA64804F0EFFD0021DB
:101E60009FEDA54ADFEDA53A9FEDA43A5FED692A03
:101E70009FED952A5FED6B1A1FED6C1AF6EE000AC6
:101E80009FED9F0A9B48443004F0D8FD01211FEDCF
:101E9000714A5FED773A1FED733A5FED742A9FED5B
:101EA000902A5FED761A9FED971ADFED910AB3EE57
:101EB000040A9048883004F0C1FD10BD1FB5924857
:101EC0007E49C8619148C1F8B800401CC1F8BC0007
:101ED00001F0DCFC79490860081D01F00DFE08F0F6
:101EE000C1FF0446082041F6FF73002281495C3996
:101EF000CDE90040864806F0F1FD08F0B3FF044646
:101F0000082041F6FF73002272491839CDE90040DC
:101F1000804806F0E3FD0421684880F8D41080F87A
:101F2000D51040F64421A0F8E8119FED7B0A80ED22
:101F30007B0A9FED7A0A80ED7C0A042180F88C13DD
:101F400080F88D1340F62821A0F8A0141FEDA60AF2
:101F500000F55E7080ED4B0A1FEDA80A80ED4C0A7B
:101F60005648FFF7BAFD5B48183890ED4E0A80EDF1
:101F7000500A90ED4D0A80ED4F0A504890ED7E0AD0
:101F800080ED800A90ED7D0A80ED7F0A0020644A92
:101F9000644BCDE9012000930390634B024601217D
:101FA00046482030FFF7C2FEFFF7D0FE00205F4A10
:101FB0005F4BCDE90120009303905E4B0422114654
:101FC0003E483830FFF7B2FE00205B4A5B4BCDE95C
:101FD0000120009303905A4B01221146374850309C
:101FE000FFF7A4FE0020574A574BCDE9012000938C
:101FF0000390564B024601463E488438FFF796FE52
:102000002E4838302D49C1F8B0001FBD08B5FFF784
:1020100055FF022008F0F7FB08F024FF0090CAE00B
:102020002C48183890ED4F0ABDEEC00A484880EDA4
:10203000000A2848183890ED4D0ABDEEC00A454800
:1020400080ED000A1D4890ED800ABDEEC00A4248AE
:1020500080ED000A194890ED7E0ABDEEC00A3F48A7
:1020600080ED000A154890ED7D0ABDEEC00A3C489F
:1020700080ED000A1148B0F9C6003A490860FFF740
:1020800005FEFFF774FD0D48FFF727FD0B48D0F85C
:10209000B00004780948D0F8B0004578324800EB29
:1020A0008506012C00D044B90448D0F8B00001786E
:1020B0001048E03000EB810765E057E0F8060020AB
:1020C00000401C4600007A440060EA4600007A4363
:1020D0000000FA43880A0020000096430000C8432D
:1020E0000000C84200409C45CDCC4C3FCDCC4C3D7F
:1020F000CDCC4C3E1408002000204B460000FA4492
:102100000000164300000C423C110020000000209B
:10211000200D0020480D002000009042000088C2E1
:10212000392200083D22000841220008232400082B
:10213000BD23000837240008A124000883240008D8
:10214000BB2400080F2700080B27000813270008EE
:102150005000002054000020380000203C000020E7
:10216000440000205C000020AC0B0020042C01D1B6
:102170002C4F08E0032C02D12A4F3F1F03E0022C12
:1021800001D1284F083F2848D0F8B00039464268AE
:1021900030469047FFF78EFB2348001D01F0ACFC52
:1021A000224BA3F52E7229462046FFF76FFA032132
:1021B000684608F0C4FA33E72DE9FF4104460D46AE
:1021C00016461F46DDF82880ADF80850ADF80A60C5
:1021D000ADF80C70ADF80E80ADF80240002002F0B2
:1021E00004FA70B10020ADF80800ADF80A00ADF8AF
:1021F0000C00ADF80000ADF80200ADF80400ADF839
:102200000600042302AA40F2FF11094805F052FC1F
:1022100004236A4640F2FF11064805F04BFCBDE876
:10222000FF8100000C090020F8060020700A002041
:1022300000640040006800400020704701207047A3
:1022400070B52DED068B04460D46002002F0CDF949
:1022500050B19FEDFE0A84ED000A9FEDFC0A85ED6A
:10226000000ABDEC068B70BDF948808870B9F9484A
:10227000008958B1F648808940B9F648008A28B1EB
:10228000F54890ED4D0A84ED000A04E0F34890ED26
:10229000000A85ED000A9FEDED0A84ED000A9FED2E
:1022A000EB0A85ED000AEA48C07A032845D1E848E0
:1022B000807A032841D1E648B0F9040000EE100A04
:1022C000B8EEC00A10EE101A08460DF027FA41ECDD
:1022D0001A0B9FEDE30B53EC102B0DF092F941EC30
:1022E000190B9FEDE10B53EC102B0DF018F941EC9D
:1022F000180B0DF03FFA2060D548B0F9060000EE4B
:10230000100AB8EEC00A10EE101A08460DF006FAD0
:1023100041EC1A0B9FEDD20B53EC102B0DF071F921
:1023200041EC190B9FEDD20B53EC102B0DF0F7F88D
:1023300041EC180B0DF01EFA286000BF91E7012058
:1023400070470020704770B52DED088B05460C4690
:10235000002002F04AF950B19FEDBC0A85ED000A59
:102360009FEDBA0A84ED000ABDEC088B70BD9FEDAD
:10237000B70A85ED000AB649B1F906000DF0B0F9CB
:1023800041EC1B0B9FEDBC0B53EC102B0DF039F9FE
:1023900041EC190B94ED000A10EE101A08460DF0EE
:1023A000BDF941EC1A0B53EC192B0DF011F841EC6F
:1023B000180B0DF0DFF9206000BFD5E710B5002045
:1023C00002F013F9B8B9022002F00FF998B9012010
:1023D00002F00BF978B99F48D0F8B80058B19D4881
:1023E000D0F8B8000078012807D19A48D0F8BC008E
:1023F0000078012801DA012010BD032002F0F5F871
:1024000058B9042002F0F1F838B9052002F0EDF8CF
:1024100018B9062002F0E9F808B10120ECE7002025
:10242000EAE710B5FFF7CAFF18B98A485030FFF73E
:10243000F5FB002010BD70B52DED068B04460D4652
:102440009FED820A84ED000A8149B1F906000DF082
:1024500047F941EC1A0B9FED820B53EC102B0DF05A
:10246000D0F841EC190B9FED860B53EC102B0DF0BF
:1024700056F841EC180B0DF07DF92860BDEC068B89
:1024800070BD7448D0F8B8000078012806D17148B2
:10249000D0F8BC000078012800D170470020FCE78C
:1024A0006C4890F8B500042805D10020694981F8EE
:1024B000B500012070470020FCE770B504460D46CA
:1024C000644890F8B50080B9634890ED4E0A84EDF9
:1024D000000A604890ED7E0A85ED000A90F8B5008C
:1024E000401C5C4981F8B5000EE15A4890F8B500EF
:1024F000012857D1574890ED7E0A85ED000A94EDEA
:10250000000AF0EE400A9FED602ADFED601A9FEDB1
:10251000601A9FED4E0A04F08AF884ED000A4E48D6
:10252000D0ED4E0AB0EE600A04F0C3F8F0EE080AEF
:10253000B4EEE00AF1EE10FA09D200205549088005
:1025400055480088C01C00B25349088008E0514833
:102550000088C01C00B24F49088000204E49088006
:102560004C48B0F9000041F28831884207DD002074
:10257000384981F8B50047490880474908804648EE
:10258000B0F90000B0F5FA7FAEDD324890F8B50042
:10259000401C304981F8B50000203E4908803E4982
:1025A0000880B1E02B4890F8B500022878D19FED63
:1025B000270A84ED000A95ED000AF0EE400A9FED2F
:1025C000322ADFED321A9FED351A9FED200A04F012
:1025D0002EF885ED000A1F48D0ED7E0AB0EE600AA5
:1025E00004F067F8F0EE080AB4EEE00AF1EE10FA33
:1025F00009D200202749088027480088C01C00B263
:102600002549088008E023480088C01C00B2214901
:1026100008800020204908801E48B0F9000041F2DF
:102620008831884207DD00200A4981F8B500194940
:102630000880194908801848B0F90000B0F5FA7F01
:1026400062DD044890F8B500401C2AE0000000005C
:1026500014100020F8060020700A0020E40000207A
:102660000000000000A084400000000000004E4078
:102670000000000000004440000000000088C3404B
:10268000000000000000284000003443000034C374
:10269000713D8A3EEA000020E80000209A99993EA8
:1026A00008E0914981F8B5000020904908809049E0
:1026B000088029E08C4890F8B500032817D11FED59
:1026C0001D0A84ED000A1FED1F0A85ED000A8648E9
:1026D000D0F8BC000078012804D102208249D1F84A
:1026E000BC1008700420804981F8B5000CE07E48D9
:1026F00090F8B500042807D11FED2C0A84ED000ADC
:102700001FED2E0A85ED000A70BD012070470020E4
:10271000704770B52DED0A8B04460D46754800686C
:10272000A8BB7549B1F90C000CF0DAFF41EC1B0BAA
:102730009FED720B53EC102B0CF0F1FE41EC1A0BD9
:102740009FED700B53EC102B0CF0E9FE41EC190BD4
:102750000DF010F808EE100A6749B1F90E000CF000
:10276000BFFF41EC1B0B9FED650B53EC102B0CF0E6
:10277000D6FE41EC1A0B9FED630B53EC102B0CF0C3
:10278000CEFE41EC190B0CF0F5FF08EE900A59480B
:102790000068012835D15849B1F90C000CF0A0FFB0
:1027A00041EC1B0B9FED590B53EC102B0CF0B7FEBB
:1027B00041EC1A0B9FED530B53EC102B0CF0AFFEBA
:1027C00041EC190B0CF0D6FF08EE100A4A49B1F99A
:1027D0000E000CF085FF41EC1B0B9FED4C0B53ECF6
:1027E000102B0CF09CFE41EC190B9FED460B53ECAB
:1027F000102B0CF094FE41EC1A0B0CF0BBFF08EE12
:10280000900A3D49B1F9040003F0A4FF14281EDD2D
:102810003949B1F904000CF063FF41EC1C0B9FED4A
:102820003D0B53EC102B0CF07AFE41EC1A0B18EE1A
:10283000100A0CF073FF41EC1B0B53EC1A2B0CF03D
:10284000C7FD41EC190B0CF095FF08EE100A2A4960
:10285000B1F9060003F07EFF142812DD2649B1F914
:1028600006000CF03DFF41EC1A0B9FED2C0B53ECD6
:10287000102B0CF054FE41EC190B0CF07BFF08EE12
:10288000900A1D48808870B91748008958B11A48C5
:10289000808940B91448008A28B1224890ED4D0A39
:1028A00084ED000A05E094ED000A30EE080A84ED9C
:1028B000000A1148C08870B90B48408958B10E48C9
:1028C000C08940B90848408A28B1074890ED7E0A7F
:1028D00085ED000A05E095ED000A30EE680A85ED09
:1028E000000ABDEC0A8B70BDF8060020EA0000204B
:1028F000E800002038010020141000202D431CEBBC
:10290000E2362A3F00000000000024402D431CEB6B
:10291000E2360A3FFCA9F1D24D62503FFCA9F1D248
:102920004D62403F700A002010B54FF480500CF00B
:1029300055FB28B90120FE49086000030CF059FB43
:1029400010BD70B52DED028B0446B0EE408A0D46E9
:10295000D4ED000AB0EE600A03F0ABFEF0EE080A18
:10296000B4EEE00AF1EE10FA1DDDB0EE480A03F015
:10297000A0FEF0EE408AD4ED000AB0EE600A03F04B
:1029800098FEF0EE080A80EE201AF4EEC18AF1EE0D
:1029900010FA08D2E748008828B9E7480088401CA8
:1029A000E54908800BE0E4480088002807DDE1489D
:1029B000008820B9E0480088401EDF4908804FF4B5
:1029C000167090FBF5F0DC49098888420BDA00208C
:1029D000D94908804FF44870D649088094ED000A20
:1029E000D64880ED000AD3480088002811DDB3EEF8
:1029F000040A84ED000ACF480088012804D1CF489A
:102A000090ED000A84ED000ACA480088401EC949BA
:102A10000880BDEC028B70BD0246501AB0F5805F95
:102A200003DDA0F5F850FF3805E010F5805F02DA0D
:102A300041F6FF73184400EE100AB8EEC00ADFED4D
:102A4000C00A20EE200A704710B52DED028BBD495B
:102A5000B1F84E1188B24FF4E161FFF7DDFFB0EE3F
:102A6000408AB84991ED7A0ABCEEC00A10EE101AFD
:102A700088B24FF4E161FFF7CFFFF0EE408AB14832
:102A800090F8F70138BBF0EE680AB0EE480AAE489D
:102A900004F039F8AB4890ED720A80ED790AD0ED78
:102AA000550AB0EE600A022100F5F270FFF749FF07
:102AB000A44890ED791AF0EE410A90ED551AB0EE67
:102AC000410A00F5AE7004F01EF89E4890ED610AD0
:102AD00080ED7B0A3CE09B4890F8F70101282DD15E
:102AE000984890EDA50ADFED990A60EE200A90F86B
:102AF000F40100EE100AB8EE400A80EE801A914808
:102B000080ED791AD0ED550AB0EE600A022100F589
:102B1000F270FFF716FF8B4890ED791AF0EE410A3C
:102B200090ED551AB0EE410A00F5AE7003F0EBFFE0
:102B3000844890ED610A80ED7B0A09E0814890F8B5
:102B4000F701022804D17F4890ED7C0A80ED7B0AD2
:102B50009FED7F0A7C484C3003F05BFE794890ED96
:102B60007B0ABDEEC00A10EE100A01B27548A0F84B
:102B7000581190F82400012811D1724890ED061ADE
:102B8000F0EE410A90ED051AB0EE410A2C3003F048
:102B9000BAFF6C4890ED150A80ED080A09E0694813
:102BA00090F82400022804D1664890ED070A80EDD1
:102BB000080A644890F8C800012811D1614890EDD6
:102BC0002F1AF0EE410A90ED2E1AB0EE410AD030E5
:102BD00003F099FF5B4890ED3E0A80ED310A09E071
:102BE000584890F8C800022804D1564890ED300AA1
:102BF00080ED310A9FED570A5248C43003F009FEB8
:102C00009FED540A4F48203003F003FE4D4890EDED
:102C1000310ABDEEC00A10EE100A01B24948A0F810
:102C2000B41090ED080ABDEEC00A10EE100A00B212
:102C300044490882BDEC028B10BD4748807E30B10C
:102C4000012805D0022808D0032811D10AE000BFCE
:102C500064203C49A1F8A4020AE0C8203949A1F83F
:102C6000A40205E04FF496703649A1F8A40200BF13
:102C700000BF3948018A3348A0F8A612B0F9A4125F
:102C8000B0F9A602081A642809DA2E48B0F94E01F4
:102C900000EE100AB8EEC00A2A4880ED7A0A7047A2
:102CA00010B52DED048B2748D0ED030AB0EE600A75
:102CB000743003F012FC234880ED1C0AD0ED2C0A7E
:102CC000B0EE600A00F58C7003F007FC1D4880ED43
:102CD000450A90ED1C0A10EE101A08460CF01EFD75
:102CE00041EC190B9FED1D0B53EC102B0CF017FC56
:102CF00041EC180B0CF03EFD12494861084690ED7E
:102D0000450A10EE101A08460CF008FD41EC190BAC
:102D10009FED120B53EC102B0CF001FC41EC180B47
:102D20000CF028FD0749C1F8B800BDEC048B10BDBC
:102D3000140100202A010020280100202C0100207D
:102D4000A105343D5C0D0020FC0E00200000704207
:102D500000401C4600008046B0130020295C8FC252
:102D600065BC693FFA4890F8F701FA49097888424A
:102D700030D0F74890F8F70150B9F548B0F94E0156
:102D800000EE100AB8EEC00AF14880ED7A0A18E0A9
:102D9000EF4890F8F701012809D19FEDEF0AEC48C0
:102DA00080EDA50A9FEDEC0A80ED790A09E0E8487C
:102DB00090F8F701022804D19FEDE70AE44880ED7E
:102DC0007C0A0020E249A1F89C02084690F8F7012D
:102DD000E049087070479FEDE00ADD4880EDA50AE4
:102DE0009FEDDD0A80ED790AB0F94E0100EE100A80
:102DF000B8EEC00AD64880ED7A0A9FEDD70A80ED7A
:102E00007C0A0020D249A1F89C02012081F8AC0282
:102E1000704710B50446CE48D0F88C0248B1CC4873
:102E2000D0F88C02406920B1C949D1F88C124869A8
:102E30008047C748C0F88C42A17880F8F711207805
:102E4000C34981F824006178C14880F8C810002087
:102E5000BF49A1F89C02FFF7BEFF206908B12069B5
:102E6000804710BD10B5BD4C09E0A06830B1A06826
:102E7000804718B12046FFF7CCFF10BD1834B44886
:102E8000D0F88C02A042F0D8B148D0F88C02C068CB
:102E9000E0B1AF49D1F88C12C8688047B0B1AC48F6
:102EA000D0F88C0200F1180409E0A06830B1A068E5
:102EB000804718B12046FFF7ACFFDEE71834A7487B
:102EC00078308442F1D36038FFF7A3FF00BFD4E726
:102ED000A348807E012804D0022807D003280FD100
:102EE00009E00E209A4981F89F0209E010209849D4
:102EF00081F89F0204E01320954981F89F0200BFEA
:102F000000BF704710B54021964809F08FFA9649E6
:102F100008600846006890B994480068801C93498E
:102F2000086008460068082811D101218848A0F8E7
:102F3000B21280F8B41200208C49086007E08A4879
:102F40000068012803D100218148A0F8B21210BD09
:102F50002DE9F04107AC94E87010DDF82C80069F55
:102F60000DB106B10CB9BDE8F08144608560C0F8D0
:102F700010C0017042708370C770C660C0F81480C2
:102F800000BFF0E710B500219FED794AFFEE003A4F
:102F90009FED783ADFED782A1FED932ADFED6E1A68
:102FA0009FED6D1ADFED750A9FED750A6B48B83815
:102FB00003F044FD0221BFEE004ADFED723ABFEE9E
:102FC000003ADFED652ABFEE002ADFED631A9FEDC0
:102FD000621ADFED610AB1EE040A6048743803F04A
:102FE0002DFD00219FED684AF3EE0D3AB2EE0E3A48
:102FF000DFED592A9FED652ADFED571A9FED641A20
:10300000F1EE040A9FED630A51482C3003F016FDDF
:1030100000219FED5D4AF3EE0D3AB2EE0E3ADFED80
:103020004E2A9FED5A2ADFED4C1A9FED591AF1EE08
:10303000040A9FED590A4648D03003F0FFFC10BD4A
:1030400000B587B0FFF7C7FE00F020FC4049C1F88B
:10305000F80101213E4805F0DFFD01213C48A43084
:1030600005F0DAFD13213D48CC3805F0D5FDF1EE31
:10307000040AB7EE000A3648743003F011FAF1EE94
:10308000040AB7EE000A3548FC3803F009FA0621B5
:103090002F4880F8F411012180F8F51180F8F6111D
:1030A000B3EE0E0A80ED330AB3EE0E0A80ED0A0A83
:1030B000FFF768FF7D2139480BF02BF903F05FFF24
:1030C00003F057FF0020364A364BCDE90320029328
:1030D00005903548002101231A46CDE90010194614
:1030E0001E48FFF735FF0020304A314BCDE9032061
:1030F000029305902F48012102231A46CDE90010C2
:10310000194616481830FFF723FF00202A4A2B4B98
:10311000CDE90320029305902948022101231A4694
:10312000CDE9001019460D483030FFF711FF0B486C
:103130001830FFF76EFE07B000BD1CB5FFF780FF2B
:103140004FF47A7007F05FFB07F08CFE01902CE1E2
:103150005C0D00203401002000000000700F0020F2
:10316000B0130020001002401001002030010020A8
:1031700000409C45E438AC421CC7B13F9A99993F46
:10318000000002430000B4430000FA4400007A4605
:1031900000007A450080BB440000E1440004014087
:1031A0001534000811340008193400081F350008D0
:1031B000F53400082F35000859350008553500084A
:1031C0005D350008794890ED050A794880ED000AE0
:1031D000764890ED2E0A774880ED000A734890ED0E
:1031E000060A754880ED000A704890ED2F0A734872
:1031F00080ED000A6D4890ED050AD0ED2E0A30EE04
:10320000200ABDEEC00A10EE100A00B26C49088018
:1032100040216C4809F00AF96B4908606348B0F82E
:10322000100200F4807030BB6848808A00F480701F
:1032300008B3012080F3138800BF00BF00BF00BFA8
:1032400000BF00BFBFF34F8F00BF00BF00BF60488B
:10325000006800F4E0605F490843001D5C490860B5
:1032600000BF00BF00BFBFF34F8F00BF00BF00BF54
:1032700000E000BFFDE758480068012804D1574826
:103280000068401C5549086055480068012804D171
:1032900054480068401C534908605348007801288E
:1032A00004D152480068401C5049086050480078DA
:1032B000012804D14F480068401C4E4908604E4820
:1032C0000078012804D14D480068401C4B49086033
:1032D0004B480068012804D14A480068401C49490D
:1032E0000860FFF70FFEFFF7F3FDFFF7BBFDFFF7E9
:1032F00039FDFFF7D5FC2D4890F8F70108B9424E8B
:103300000EE02A4890F8F701012802D13E4EAC3673
:1033100006E0264890F8F701022801D13A4E083617
:10332000224890F82400012802D1204C183406E0ED
:103330001E4890F82400022801D11C4C1C341B4864
:1033400090F8C800012802D1184DBC3506E0174896
:1033500090F8C800022801D1144DC0351348D0F8A8
:103360008C02324629464368204698472648143046
:1033700000F0C2FBFFF761FCFFF766FB0B48B0F9FA
:10338000B4000A4F0090B7F91030B7F958211F4F19
:10339000B7F888737F4239B21C4FB7F9D000FEF7F7
:1033A0000BFF022101A807F0CAF90BE75C0D002012
:1033B000EC000020F80000200001002004010020A3
:1033C0000C010020001002401C01002014100020FD
:1033D0000CED00E00000FA0544010020400100204F
:1033E00058010020540100204C0100204801002019
:1033F0007001002074010020780100207C01002071
:103400006001002064010020440F0020F806002025
:10341000012070470020704770B52DED068B0446E3
:103420000D461646F848C07A012848D1F648807AF9
:10343000012844D195ED000AF0EE400A9FEDF31A01
:10344000B9EE0C0A03F0C0F885ED000A94ED000A0D
:10345000F0EE400A9FEDED1AB1EE0C0A03F0B4F85D
:1034600084ED000AE848B0F9060000EE100AB8EE54
:10347000C00A10EE101A08460CF050F941EC1A0B75
:103480009FEDE30B53EC102B0CF0BBF841EC190B48
:103490009FEDE10B53EC102B0CF041F841EC180BB5
:1034A0000CF068F93060D848B0F90200B0F5FA7F46
:1034B00002DD03F058FD1AE003F05BFD17E095ED27
:1034C000000AF0EE400A9FEDD11A9FEDD50A03F0F5
:1034D0007BF885ED000A94ED000AF0EE400A9FEDBE
:1034E000CB1A9FEDCF0A03F06FF884ED000ABDEC14
:1034F000068B70BD10B5002001F077F858B9082090
:1035000001F073F838B9092001F06FF818B90A20F2
:1035100001F06BF808B1012010BD0020FCE710B5E8
:10352000FFF7E8FF08B1002010BD0120FCE770B5EF
:1035300006460C4615469FEDBA0A86ED000A9FED39
:10354000B80A84ED000A9FEDB60A85ED000A03F083
:1035500010FD70BD01207047002070472DE9F0413B
:1035600005460E461446A848807A01281AD1AD496E
:10357000087096ED000AF0EE400A9FEDA41A9FED48
:10358000AA0A03F021F886ED000A95ED000AF0EE94
:10359000400A9FED9E1A9FEDA50A03F015F885EDF0
:1035A000000A1AE000209F49087096ED000AF0EE2C
:1035B000400A9FED961A9FED9A0A03F005F886EDF2
:1035C000000A95ED000AF0EE400A9FED901A9FED7B
:1035D000940A02F0F9FF85ED000A00278A48C07AB4
:1035E000012801D1012708E08748C07A032803D0C9
:1035F0008548C07A022800D100278D48007801282C
:1036000010D1BAEE040A84ED000A8A4800686428E2
:1036100008DD9FED830A84ED000A002084490870CC
:10362000844908608448B0F8100200F4805038B92A
:103630007548808A00F4805010B101207F490870DD
:103640007E480078012810D1B3EE040A84ED000A08
:103650007B480068C82808DD9FED710A84ED000AE8
:10366000002076490870764908607348B0F8B202C5
:1036700020B9012F02D101207249087071480078E9
:10368000012810D1BAEE0E0A84ED000A6E480068D7
:103690000F2808DD9FED620A84ED000A00206949C9
:1036A0000870694908605848807A012803D1564853
:1036B000C07A022807D05448807C012806D1594896
:1036C0000078012802D10120604908605F48006845
:1036D00001280ED100205D49086003F044FC002061
:1036E0005B49086001205B4908605B4908605B49F1
:1036F000086057480068FA2806DD03F03AFC00200D
:10370000544908605249086051480068322807DD72
:103710004F480068FA2803DA9FED410A84ED000A59
:103720004D48006801280DD100204B490860B1EEDA
:10373000000A84ED000A4A490860012049490860EE
:10374000494908604648006814280ADD9FED340A9C
:1037500084ED000A0020434908604149086042495D
:10376000086042480068B0F5E17F04DD00203B4975
:1037700008603E49086039480068012803D19FED80
:10378000280A84ED000A2048007D00F0400090B136
:10379000322003F0DEFC1C48007D00F0400050B1F8
:1037A00033480068401C3249086008460068032816
:1037B00001D1002008601448C07C012802D10020FB
:1037C0002B4908602A48006830B900202949086060
:1037D0007D2129480AF09DFD25480068012805D172
:1037E00024490860532124480AF093FD20480068CA
:1037F000022806D101201F490860B1211E480AF0A5
:1038000088FDBDE8F081000014100020BC74133D59
:103810000000000000A084400000000000004440C0
:103820000000000081010020CDCC9CC1CDCC9C418A
:1038300070010020740100205C0D00207801002040
:103840007C0100204C010020480100203C010020A8
:1038500040010020440100205001002060010020B0
:1038600054010020580100205C0100206401002068
:103870006C010020380100200004014010B5242212
:10388000AF49A1F1240003F013FD10BDAD4870470E
:103890000146002901DD08467047484200B2FBE7B7
:1038A00010B5A849B1F90000FFF7F2FFB0F52F7F7E
:1038B00000DD24E0A349B1F90200FFF7E9FFB0F50C
:1038C0002F7F00DD1BE09F49B1F90400FFF7E0FF07
:1038D000B0F52F7F00DD12E09A49B1F90600FFF73D
:1038E000D7FFB0F52F7F00DD09E09648807A00B958
:1038F00005E09448C07A00B901E0002010BD002026
:103900009049088048808880C88008810220887299
:1039100002218C48C17200208A498881002189488F
:10392000C18101828174C17400208649888201208E
:10393000E4E710B5242003F05DFD10BD10B5242090
:1039400003F058FD10BD00B101B97047027843780B
:1039500042EA0322C2F30A020A804278D210837834
:1039600042EA4312C2F30A024A8082789211C37873
:1039700042EA8302037942EA8322C2F30A028A807E
:1039800002795210437942EAC312C2F30A02CA8092
:103990004279C2F30113CB724279121192088A72F2
:1039A0008279C37942EA032212B28A81027A437A87
:1039B00042EA032213B201F10C02CB81827AC37A6C
:1039C00042EA032213B201F10C020B82037B8B74D7
:1039D000437BCB74827BC37B42EA03228A82027CD4
:1039E000437C42EA032212B20A810A88A2F580626D
:1039F00012B20A804A88A2F5806212B24A808A888E
:103A0000A2F5806212B28A80CA88A2F5806212B2E0
:103A1000CA800A89A2F5806212B20A8100BF94E7C7
:103A200010B540F22551484809F0BCFA18B1464893
:103A300009F0F6F95FE040F22441434809F0B2FA98
:103A4000002858D0404809F0EBF940480AF00BF93B
:103A500048BB00213D480AF0C3F83C480AF0E3F8AF
:103A6000C0F124003A490880242138480AF0D9F8E6
:103A70003648006840F4002034490860354933482E
:103A80000AF027F9012131480AF0AAF830480088E5
:103A9000122830D12B492A482438FFF754FF002040
:103AA00000F0ADFD27E0002128480AF099F82748EA
:103AB0000AF0B9F8C0F124002549088024212348E0
:103AC0000AF0AFF82148006820F400201F49086080
:103AD00020491E480AF0FDF801211C480AF080F830
:103AE0001B480088122806D116491548FFF72BFFFE
:103AF000002000F084FD10BD00B97047114909880D
:103B000001801049498841800E49898881800D498A
:103B1000C988C1800B49897A81720A49CA7AC272FE
:103B2000898981810749CA8900F10C01C28105494F
:103B30008A7C8274CA7CC274898A818200BFDCE775
:103B40004E1000201410002000100140406402407C
:103B50008C01002000003010F0B505AC94E8F010A6
:103B6000F0BD70B586B006460D4600240A2D00DD76
:103B70000A2500240DE016F8140001AA02F814002A
:103B800036F81400C0F307216000401C1154601C7B
:103B9000C4B2AC42EFDB6806010E012201A804F0BA
:103BA00057FB06B070BD04F0A7F9642006F02BFEA9
:103BB00061E0314890ED2F0ABDEEC00A10EE100A08
:103BC00000B22E4908802C4890ED550ABDEEC00A7F
:103BD00010EE100A00B24880274890ED7B0ABDEE37
:103BE000C00A10EE100A00B28880234890EDA10AA6
:103BF000BDEEC00A10EE100A00B2C8801E4890ED5B
:103C00003C0ABDEEC00A10EE100A00B208811A4844
:103C100090ED620ABDEEC00A10EE100A00B24881B3
:103C2000154890ED880ABDEEC00A10EE100A00B2E9
:103C30008881114890EDAE0ABDEEC00A10EE100A60
:103C400000B2C8810E4890ED4F0ABDEEC00A10EEDA
:103C5000100A00B208820A4890ED4D0ABDEEC00A73
:103C600010EE100A00B248820A210448FFF779FFDB
:103C7000052006F0C8FD9CE74C03002072100020D0
:103C8000700A002010B586B0044603E001A9494837
:103C900009F064FB00231A4601A94748006805F0B3
:103CA00040FE0028F2D106B010BD10B586B0044623
:103CB00003E001A9414809F051FB00231A4601A97C
:103CC0003F48006805F02DFE0028F2D106B010BD77
:103CD00010B50446002102209FED3A0A04F021FDB0
:103CE00010BD38B505F07CFA00221421802005F0C3
:103CF000C3FB3149086000221421802005F0BCFB81
:103D00002F49086000220C21802005F0B5FB2E49C8
:103D10000860AFF28F0000230122114600902BA013
:103D200008F083F92C4908600846006858B107F08C
:103D300099F80446002003462246012100902648B7
:103D4000006807F055FFAFF29D0001231A4619469F
:103D5000009022A008F069F923490860084600682D
:103D600058B107F07FF8044600200346224601219F
:103D700000901D48006807F03BFFAFF2AB00012345
:103D80001A460A21009019A008F04FF91B49086053
:103D90000846006858B107F065F80446002003465D
:103DA0002246012100901548006807F021FF05F028
:103DB0003EFA38BD006400409C01002000680040CD
:103DC000A001002000A00C46A401002043414E3178
:103DD0005F54696D657200009001002043414E32CE
:103DE0005F54696D65720000940100205649534983
:103DF0004F4E5F54696D657200000000980100200D
:103E00002DED0C8B84B007F02DF80390642006F0A4
:103E1000FAFC5CE1AE49AF4802F035FBAE4801F078
:103E20005CF8AB49AC4801F0B3F8AB48007800F05F
:103E30004000402813D1A948007880B90020A84943
:103E4000088000BF08E09FEDA70AA74901EB8001A9
:103E500081ED000A411CC8B20328F4DB24E09F482E
:103E6000007808BB9E480088401D9D490880084690
:103E70000088B0F57A7F17DB002013E09A4901EB48
:103E8000800191ED000A9449243101EB8001D1EDCC
:103E9000000A30EE200A944901EB800181ED000A0E
:103EA000411CC8B20328E9DB8C480078F0BB8C4881
:103EB000008840F6B831884243DB0120874908700A
:103EC00000243CE0864800880BF01BFC41EC1D0BF5
:103ED0009FED860B53EC102B0BF093FB41EC1B0B6F
:103EE000814800EB840090ED000A10EE101A08469D
:103EF0000BF014FC41EC1C0B53EC1B2B0BF081FB67
:103F000041EC190B7448483000EB840090ED000A36
:103F100010EE101A08460BF001FC41EC1A0B53ECA2
:103F2000192B0BF0F6FA41EC180B00E009E00BF04E
:103F300021FC6949483141F82400601CC4B2032CBB
:103F4000C0DB6C48007870BB01206A490870604A89
:103F50001832A2F10C0168480BF0B0FD5C4890EDFE
:103F6000030A664880ED000A654880ED000A65484E
:103F700080ED000A564890ED040A604880ED010A81
:103F80005F4880ED010A5F4880ED010A504890EDDE
:103F9000050A5A4880ED020A594880ED020A59483C
:103FA00080ED020A79E0FFE7554890ED000A554898
:103FB00080ED000A514890ED000A514880ED000A5A
:103FC00090ED000A5048D0ED000A20EE200A4D483E
:103FD000D0ED000A4C4890ED011A00EE810A3C48F1
:103FE000D0ED030A484890ED021A00EE810A4348DA
:103FF00080ED000A424890ED010A424880ED010A36
:104000003E4890ED010A3E4880ED010A90ED010A1C
:104010003D48D0ED000A20EE200A3A48D0ED010AD2
:10402000394890ED011A00EE810A2948D0ED040AC2
:10403000354890ED021A00EE810A304880ED010A01
:104040002F4890ED020A2F4880ED020A2B4890ED90
:10405000020A2B4880ED020A90ED020A2A48D0EDB0
:10406000000A20EE200A2748D0ED020A264890EDEB
:10407000011A00EE810A1648D0ED050A224890ED9B
:10408000021A00EE810A1D4880ED020A024610491C
:104090009FED1E0A184801F0ECFB6B4601AA02A92D
:1040A000154801F08FFD1A48407858B91948008822
:1040B000401D184908804FF47A7017490880012084
:1040C00013494870052103A806F039FB00BFA1E69B
:1040D0003C110020FC130020D8100020A801002073
:1040E000AA01002000000000AC1100200000000028
:1040F00000001440AC0100209C110020CC100020D6
:10410000C0100020B41000206C1D01080AD7A33B8A
:1041100000000020AE010020B001002010B50446D0
:104120000E2C05D102F062FE0E20FE49087037E029
:10413000FC480078A04201D0FA480470FA480078A0
:1041400078B9FA480078401CF849087008460078A9
:10415000322805DD00200870F2480078F249087026
:1041600010BDF348007880B902F092FEF148007863
:1041700040B10020EF490870EB480078401EEA4942
:10418000087002E00120EB490870E9480078401C03
:10419000E749087008460078142801DD00200870FF
:1041A00000BFDDE710B594B004465022E2496846EE
:1041B0000BF0DAF800209EE000EB40013DF8112002
:1041C00000EBC001DD4B03EB8101098A62F30B01B7
:1041D00000EBC00203EB8202118200EB40016A4651
:1041E00002EB41014A8800EBC00103EB8101B1F809
:1041F000111062F30F1100EBC00203EB8202A2F870
:10420000111000EB40016A4602EB4101097900EB15
:10421000C00203EB8202D27C61F3440200EBC001D6
:1042200003EB8101CA74002100EBC00203EB8202A0
:10423000916100EBC00203EB8202D16100EBC0028E
:1042400003EB8202116200EBC0011A4602EB81010E
:10425000C97C21F00101491C00EBC00203EB820282
:10426000D17400EBC0011A4602EB8101C97C21F038
:104270002001203100EBC00203EB8202D17400EB7D
:10428000C0011A4602EB8101C97C21F04001403196
:1042900000EBC00203EB8202D17400EBC0011A46AE
:1042A00002EB8101C97C21F08001803100EBC0026A
:1042B00003EB8202D1749FEDA20A10EE101A00EBFC
:1042C000C00203EB8202516100EBC0011A4602EB0F
:1042D00081010C6000EBC00102EB81014C6000EB3E
:1042E000C00102EB81018C6000EBC00102EB810197
:1042F000CC60411CC8B20D28FFF65EAF91488F49D3
:1043000088619148C8619148086214B010BD06F0F8
:10431000A9FD8F49086008460068FFF743FF392070
:1043200006F071FA60E106F09DFD894908600D20F4
:1043300088490870814890F8E70120F040017F48E3
:1043400080F8E71190F8E70120F020017B4880F821
:10435000E711002437E104EBC400784901EB800049
:10436000C07C00F0010000B92CE104EBC4007349EB
:1043700001EB8000006876490968081A04EBC40163
:104380006E4A02EB8101098AC1F30B01884260D9B0
:1043900004EBC400114601EB8000C07CC0F3401068
:1043A00008BB04EBC40001EB8000C07C20F040009F
:1043B000403004EBC40102EB8101C87404EBC4007B
:1043C000114601EB8000C07C20F02000203004EB7F
:1043D000C40102EB8101C8745D48006804EBC401AC
:1043E00002EB8101886004EBC400544901EB8000BA
:1043F000C07CC0F343005749097801EBC1014F4A23
:1044000002EB8101C97CC1F34301884201DD5149BE
:104410000C704A4890F8E70120F0400040304749CE
:1044200081F8E701084690F8E70120F020002030ED
:1044300081F8E70104EBC40001EB8000C0690028AB
:1044400006D004EBC4013D4A02EB8101C8698047F4
:10445000A5E004EBC400394901EB8000C0683C4989
:104460000968081A04EBC401344A02EB8101B1F86F
:104470001110B0EB111F1BD204EBC400114601EB6D
:104480008000C07C20F0400004EBC40102EB8101FD
:10449000C87404EBC400114601EB8000C07C20F01E
:1044A0002000203004EBC40102EB8101C87476E0E7
:1044B00004EBC400214901EB8000C07C20F04000E7
:1044C00004EBC4011D4A02EB8101C87404EBC40073
:1044D000114601EB8000C07CC00968B104EBC40048
:1044E00001EB8000C07C20F02000203004EBC401F0
:1044F00002EB8101C8740DE004EBC4000F4901EB2D
:104500008000C07C20F0200004EBC4010B4A02EBC9
:104510008101C87404EBC400084901EB8000006805
:104520001AE00000BD010020C0010020C1010020F0
:10453000BE010020BF010020781D0108B811002035
:1045400000000000A1380008333900083D39000898
:10455000B8010020BC01002004EBC401714A02EB49
:104560008101496888421AD904EBC400114601EB65
:104570008000006804EBC40102EB81014968401A25
:1045800000EE100AF8EE400A9FED671A81EE200A4D
:1045900010EE100A04EBC40102EB8101486104EB48
:1045A000C400604901EB8000C07CC0F3401028B11A
:1045B000082C03DAA0B202F072FC02E0A0B202F012
:1045C0000BFC00BF641C0D2CFFF6C5AE57490978E3
:1045D000491CC8B2FFF7A2FD0A2006F014F900201A
:1045E00006F02FFF524908609DE6014601EBC1002D
:1045F0004C4A02EB8000C07CC0F34010704710B5FD
:10460000044604EBC400474901EB8000006804EB5A
:10461000C401444A02EB8101486006F023FC04EB2C
:10462000C401404A02EB8101086004EBC40011465A
:1046300001EB8000C07CC0F38010B0B104EBC4007B
:1046400001EB8000C07C20F0400004EBC40102EBD1
:104650008101C87404EBC400114601EB80000068BE
:1046600004EBC40102EB8101C86004EBC4002D49D6
:1046700001EB8000806990B304EBC401294A02EB8E
:1046800081018869804758B304EBC400254901EBD8
:104690008000C07C20F02000203004EBC401214ABF
:1046A00002EB8101C87404EBC400114601EB8000E9
:1046B000C07C20F08000803004EBC40102EB81015B
:1046C000C87404EBC400114601EB8000006A28B3F3
:1046D00004EBC40102EB8101086A80471EE00FE091
:1046E000FFE704EBC4000F4901EB8000C07C20F021
:1046F000800004EBC4010B4A02EB8101C8740DE099
:1047000004EBC400074901EB8000C07C20F080006E
:1047100004EBC401034A02EB8101C87410BD0148D7
:1047200070470000B811002000007A44BC0100204E
:10473000B401002003E04FF4FA7006F064F8FAE7E1
:1047400007E04FF4FA7006F05EF84FF4FA7006F0E6
:104750005AF8F6E71CB5044604F042FD3A48152124
:1047600000234FF40072CDE9001038A13A4805F05B
:10477000CCFD3A48132100234FF40072CDE900101C
:1047800037A13A4805F0C1FD3948122100234FF402
:104790000072CDE9001037A1394805F0B6FD39485F
:1047A000142100234FF40072CDE9001036A13948DE
:1047B00005F0ABFD38480A2100234FF48072CDE9A3
:1047C000001036A1384805F0A0FD38480521002327
:1047D0004FF48072CDE9001035A13A4805F095FDFF
:1047E0003948042100238022CDE9001037A13A483E
:1047F00005F08BFD1448042100238022CDE9001030
:1048000036A1394805F081FD3848032100234FF4D3
:104810008072CDE9001036A13A4805F076FD3A489D
:10482000006805F0C0FD04F002FD1CBD1CB5364853
:10483000012100234A02CDE9001034A1AFF2EB00C0
:1048400005F063FD1CBD0000CC010020494E535F04
:104850007461736B00000000013E0008D401002069
:1048600067696D62616C5461736B00000D20000814
:10487000D8010020636861737369735461736B00BE
:104880006F0C0008DC01002073686F6F7454617353
:104890006B0000003B310008E001002044657465B6
:1048A00063745461736B00000F430008E40100203F
:1048B0006F7363696C6C6F6772617068795F746144
:1048C000736B0000A73B0008C80100206C65645FA3
:1048D0007461736B000000003547000862757A7AD6
:1048E00065725F7461736B0041470008E801002046
:1048F000626F617264425F6C696E6B5F5461736B6F
:1049000000000000D74A0008C401002073746172DF
:10491000745F7461736B0000704710B506F0A5FDFD
:10492000012801D004F09FFC10BD00210B4A11604A
:104930005160704710B50121094809F0AEFF60B120
:104940000121074809F0A6FF044802684068521C8C
:1049500040F1000001490A60486010BDF0010020EC
:10496000000400400021EB4881733C2181817047A5
:10497000704710B586B0044640F206500190002002
:104980008DF80C008DF80D0002208DF80E008DF8CA
:104990000F4001A9E04808F0E1FC06B010BD30B5B9
:1049A00085B004460D4640F20550009000208DF879
:1049B00008008DF8090002208DF80A008DF80B40E0
:1049C0008DF80C506946D44808F0C8FC05B030BDDD
:1049D00030B585B004460D4640F2045000900020EA
:1049E0008DF808008DF8090002208DF80A008DF876
:1049F0000B408DF80C506946C74808F0AFFC05B075
:104A000030BD00B52DED028B87B0B0EE408A40F28C
:104A10000250029000208DF810008DF81100042043
:104A20008DF812008DED018A9DF804008DF81300B9
:104A30009DF805108DF814109DF806108DF81510CE
:104A40009DF807108DF8161002A9B34808F086FCEF
:104A500007B0BDEC028B00BD00B52DED028B87B019
:104A6000F0EE408AB0EE608A40F2015002900020E1
:104A70008DF810008DF8110008208DF81200CDED92
:104A8000018A9DF804008DF813009DF805108DF83B
:104A900014109DF806108DF815109DF807108DF86C
:104AA00016108DED018A9DF804108DF817109DF8F1
:104AB00005108DF818109DF806108DF819109DF846
:104AC00007108DF81A1002A9934808F047FC07B0A8
:104AD000BDEC028B00BD08B50A2005F094FE06F07F
:104AE000C1F9009063E08D4890F8C002012806D11A
:104AF00003F0B5F80020894981F8C00206E00020E3
:104B000003F0ADF80020854981F8C002844890ED9B
:104B10007E1AF0EE410A00F55E7090ED4E1AB0EE8E
:104B2000410AFFF799FF7D48D0F8BC02D0ED000A9A
:104B3000F5EEC00AF1EE10FA09D27848D0F8BC02BE
:104B4000D0ED000A9FED771A70EE810A04E07348F9
:104B5000D0F8BC02D0ED000AB0EE600AFFF751FFBA
:104B60006F4890F8B400052806D16F4890F89F125E
:104B70000120FFF72DFF0AE0694890F8B4000328F0
:104B800005D1694890F89F120220FFF721FF664A7D
:104B900092F8A01292F8B402FFF701FF624991F86F
:104BA000B202FFF7E6FE0521684605F0C8FD9AE768
:104BB000C27A584981F820207047027B55498A768D
:104BC000427B817B42EA01210AB252498A83817C7D
:104BD00001F002024F498A77817C01F004024D49BD
:104BE000CA777047027B417B42EA012100EE901AAE
:104BF000F8EEE00AB0EE600AC17A49B2454A117196
:104C0000F2EE040A80EE201A114681ED021A827B30
:104C1000C17B42EA01223F498A817047C27A017B07
:104C200042EA01210AB23B490A82427B817B42EA85
:104C300001210AB237494A82C27B017C42EA012142
:104C40000AB234498A827047C17A4AB2314981F83E
:104C500021207047C17A4AB22E498A75017B4AB237
:104C60002C49CA75427B817B42EA01210AB229495B
:104C70000A837047C17AC1F38302264981F8202054
:104C8000C17A01F0030223498A76027B417B42EA22
:104C900001210AB21F498A837047C27A017B42EA26
:104CA000012100EE101AB8EEC00A1A4981ED020A7D
:104CB000427B817B42EA012216498A817047027B4E
:104CC000417B42EA01210AB212490A83827BC17BFD
:104CD00042EA01210AB20F490A82027C417C42EA7F
:104CE00001214AB20B49CA75704700B585B040F240
:104CF0000350009000208DF808008DF80900012075
:104D00008DF80A008DF80B006946034808F026FB71
:104D100005B000BDB0130020006400404C0300202B
:104D2000F80600200000B4435C0D002010B54FF4DD
:104D3000407007F023FA02F0B1F902F0C4F802F073
:104D400063F803F029FD00F049F800F085F803F05E
:104D5000B1FF02F09FFF02F06EFA40F2077140F2DD
:104D6000CF7002F02DF97D21164809F0D2FA2D21DD
:104D7000144809F0CCFA02F02CFAFEF77FFD01216D
:104D800041F2883002F0F5FB02F0DCFC03F052FF48
:104D9000052142F2283002F08FFC02F048FD03F0BA
:104DA000DFFA10BDFFF7C2FF642002F0D2F9FBF773
:104DB00065FAFEF796FFFFF739FD05F0E3FF00BF48
:104DC000FEE7000000040140704700BFFEE700BF9F
:104DD000FEE700BFFEE700BFFEE7704710B5802189
:104DE0006B2003F071FD4FF4967002F0D8F9752036
:104DF00003F080FD702801D0FF2010BD322002F0AA
:104E0000CEF9002424E004EB4402F74B1A44517815
:104E100004EB4402985C03F057FD322002F0BFF926
:104E200004EB4401F04A505C03F064FD04EB4401E0
:104E3000ED4A11444978884205D004EB44001146FC
:104E400008448078D9E7322002F0A9F9601CC4B286
:104E50000E2CD8DB0020D0E770B500220421E348F7
:104E600007F002FB642002F09AF901220421DF48D6
:104E700007F0FAFA642002F092F9002424E004EB2F
:104E80004402DB4B1A44517804EB4402985C03F073
:104E90008CFD022002F083F904EB4401D44A505CFB
:104EA00003F094FD0546022002F079F904EB44007A
:104EB000CF4908444078A84204D004EB4400084499
:104EC000807870BD601CC4B2042CD8DB03F063FD95
:104ED000642002F064F90020F3E710B504461722BD
:104EE000C4493A2003F03AFDC24800782080C14806
:104EF0008078C049497840EA012000B26080BD480E
:104F00000079BC49C97840EA012000B2A080B948C4
:104F10008079B849497940EA012000B2E080B5487B
:104F2000807AB449497A40EA012000B22081B14830
:104F3000007BB049C97A40EA012000B26081AD48E7
:104F4000807BAC49497B40EA012000B2A081A9489E
:104F5000007CA849497C40EA012000B2E081A548D4
:104F6000807CA449C97C40EA012000B22082A1488B
:104F7000007DA049497D40EA012000B260829D4841
:104F8000007A9C49C97940EA012000B2A08210BD94
:104F900010B50A46B0F9021000EE101AB8EEC00AB9
:104FA000DFED950A20EE200A80ED060AB0F9041024
:104FB00000EE101AB8EEC00ADFED8F0A20EE200ACC
:104FC00080ED070AB0F9061000EE101AB8EEC00A1C
:104FD000DFED890A20EE200A80ED080AB0F90810FA
:104FE00000EE101AB8EEC00ADFED840A20EE200AA7
:104FF00080ED090AB0F90A1000EE101AB8EEC00AE6
:10500000DFED7E0A20EE200A80ED0A0AB0F90C10CE
:1050100000EE101AB8EEC00ADFED780A20EE200A82
:1050200080ED0B0AB0F90E1000EE101AB8EEC00AAF
:10503000DFED730A20EE200A80ED0C0AB0F91010A3
:1050400000EE101AB8EEC00ADFED6D0A20EE200A5D
:1050500080ED0D0AB0F9121000EE101AB8EEC00A79
:10506000DFED670A20EE200A80ED0E0AB0F9141079
:1050700000EE101AF8EEC00A9FED621A80EE810A67
:10508000F3EE050A30EE200ABDEEC00A10EE101A4B
:1050900009B28182002186E090ED090A01EB41030B
:1050A000594C04EB8303D3ED000A20EE200AD0ED27
:1050B0000A0A01EB410304EB830393ED011A00EEAE
:1050C000810AD0ED0B0A01EB410304EB830393ED5E
:1050D000021A00EE810A00F1480303EB8103D3EDCD
:1050E000000A30EE200A02EB810383ED000A90ED06
:1050F000060A01EB4103454C04EB8303D3ED000AA0
:1051000020EE200AD0ED070A01EB410304EB8303F4
:1051100093ED011A00EE810AD0ED080A01EB41037C
:1051200004EB830393ED021A00EE810A00F13C03C5
:1051300003EB8103D3ED000A30EE200A02F10C03E9
:1051400003EB810383ED000A90ED0C0A01EB4103B0
:105150002F4C04EB8303D3ED000A20EE200AD0EDA0
:105160000D0A01EB410304EB830393ED011A00EEFA
:10517000810AD0ED0E0A01EB410304EB830393EDAA
:10518000021A00EE810A00F1540303EB8103D3ED10
:10519000000A30EE200A02F1180303EB810383EDCD
:1051A000000A4B1CD9B20329FFF676AF10BDF0EE12
:1051B000400AF6EE001A60EEA11AB0EE611AB0EEE7
:1051C000600A10EE100A1349A1EB600000EE100A0D
:1051D00021EE002AF7EE081A42EE401A61EE801A1C
:1051E000B0EE610A70470000C71D010800100240C0
:1051F000F21D0108D4130020CDCC9C3A58A00B3AE4
:105200009A99993E5CEFA643F80100201C02002009
:1052100040020020DF59375FF0B52DED108BA1B0B3
:105220000446F0EE40AA0D4616461F469FEDFE0AC4
:10523000B0EE40FAB0EE000A8DED0A0A94ED000AD5
:10524000F0EE408A94ED010AB0EE409A94ED020A25
:10525000F0EE409A94ED030AB0EE40AA28EEA80AB8
:105260008DED090A28EE890AF0EE40FA28EEA90A27
:10527000F0EE40BA28EE8A0A8DED080A29EE090AF6
:105280008DED070A29EE290A8DED060A29EE0A0A94
:10529000B0EE40CA29EEA90AF0EE40CA29EE8A0A09
:1052A0008DED050A2AEE0A0A8DED040A95ED000A35
:1052B0008DED1F0A95ED010A8DED1E0A95ED020A8E
:1052C0008DED1D0A96ED000A8DED1C0A96ED010A82
:1052D0008DED1B0A96ED020A8DED1A0A97ED000A74
:1052E0008DED190A97ED010A8DED180A97ED020A66
:1052F0008DED170A9DED1C0AB5EEC00AF1EE10FA0D
:105300000DD19DED1B0AB5EEC00AF1EE10FA06D1E3
:105310009DED1A0AB5EEC00AF1EE10FA2FD0DDEDC0
:105320001C0A9DED1C1A60EE810A9DED1B1ADDED35
:105330001B1A41EE210A9DED1A1ADDED1A1A41EEF3
:10534000210AB0EE600AFFF732FFB0EE408ADDEDD1
:105350001C0AB0EE480A20EE800A8DED1C0ADDED35
:105360001B0AB0EE480A20EE800A8DED1B0ADDED27
:105370001A0AB0EE480A20EE800A8DED1A0A9DED59
:10538000190AB5EEC00AF1EE10FA0DD19DED180A1A
:10539000B5EEC00AF1EE10FA06D19DED170AB5EE92
:1053A000C00AF1EE10FA29D0DDED190A9DED191AA7
:1053B00060EE810A9DED181ADDED181A41EE210A02
:1053C0009DED171ADDED171A41EE210AB0EE600AC5
:1053D000FFF7EDFEB0EE408A9DED190A20EE080AB7
:1053E0008DED190A9DED180A20EE080A8DED180AB8
:1053F0009DED170A20EE080A8DED170A9DED190A9A
:10540000F0EE000A60EE200AB6EE000A30EE6C1AEA
:105410009DED040A31EE400A20EE800ADDED180A07
:10542000B0EE001A60EE811ADDED060A9DED081A55
:1054300070EEC10A01EEA00ADDED170AB0EE001A07
:1054400060EE810A3CEE2B1A00EE810A8DED160A01
:105450009DED190AF0EE000A20EE201A9DED060AD5
:10546000DDED080A30EE200A21EE000ADDED180A13
:10547000B0EE001A20EE811ADDED070AF6EE001AF2
:1054800071EEE01ADDED040A71EEE00A01EE200A89
:10549000DDED170AB0EE001A20EE811ADDED050AE7
:1054A00070EEEF0A01EE200A8DED150A9DED160A49
:1054B00060EE000A9DED150A40EE000A10EE901A0B
:1054C00008460AF02BF9CDE900019DED000B0BF029
:1054D000E3FB8DED020B9DED020B51EC100B0AF07E
:1054E00049F90BEE100A9DED190AF0EE000A20EEC4
:1054F000200A7CEE6B0A20EE200ADDED180AB0EEE1
:10550000001A20EE811ADDED050A70EEAF0A01EEF9
:10551000200ADDED170AB0EE001A20EE811ADDED4B
:10552000070AF6EE001A71EEE00A70EEEC0AB0EE31
:1055300040DA01EE20DA3CEE6B0AF0EE000A20EED3
:10554000200A8DED140A9DED050A3FEE800AF0EE6B
:10555000000A20EE200A8DED130A9DED090ADDED0B
:10556000070A30EE600A70EE6C0A9DED040A30EE18
:10557000800A8DED120AB0EE000A6BEE000AB6EE5C
:10558000000A30EE6C1A9DED040A31EE400A20EE5E
:10559000800AF0EE000A6DEE200A3CEE6B1A00EE77
:1055A000810A8DED110AB0EE000A2BEE001A9DED76
:1055B000060ADDED080A30EE600A21EE000AF0EE80
:1055C000000A2DEE201ADDED050A7FEEA00A01EE9D
:1055D000200A8DED100AB0EE000A2BEE000A7BEED9
:1055E0008C0A20EE200AF0EE000A2DEE201ADDEDE6
:1055F000070AF6EE001A71EEE00A70EEEC0A01EE10
:10560000200A8DED0F0ADDED1B0A9DED120A60EEFA
:10561000800A9DED1A1A9DED130A41EE400A9DED98
:10562000181A9DED0F0A01E00AD7233C21EE001A5B
:10563000DDED171A9DED100A01EEC01A30EE810A59
:105640008DED0E0ADDED1A0A9DED140A60EE800A5A
:105650009DED1C1A9DED120A41EE400A9DED171AB0
:105660009DED110A21EE001ADDED191A9DED0F0ACC
:1056700001EEC01A30EE810A8DED0D0ADDED1C0A37
:105680009DED130A60EE800A9DED1B1A9DED140A34
:1056900041EE400A9DED191A9DED100A21EE001A07
:1056A000DDED181A9DED110A01EEC01A30EE810AE7
:1056B0008DED0C0AB5EEC0FAF1EE10FA1BDDFE48D6
:1056C000D0ED000A9DED0E0A30EE800A80ED000A52
:1056D000FA48D0ED000A9DED0D0A30EE800A80ED0B
:1056E000000AF748D0ED000A9DED0C0A30EE800A62
:1056F00080ED000A0EE09FEDF30AEF4880ED000A0E
:105700009FEDF00AED4880ED000A9FEDEE0AEC48AF
:1057100080ED000A9DED0A0ADDED0E0A20EE200A5A
:10572000E548D0ED000A0FEE200ADDED1F0A30EE4D
:10573000200A8DED1F0A9DED0A0ADDED0D0A20EE0F
:10574000200ADE48D0ED000A0FEE200ADDED1E0A29
:1057500030EE200A8DED1E0A9DED0A0ADDED0C0AE1
:1057600020EE200AD648D0ED000A0FEE200ADDED2B
:105770001D0A30EE200A8DED1D0AB0EE000A8AEEF9
:10578000801AB1EE490ADDED1F0A20EE200ADDED98
:105790001E0A09EEE00ADDED1D1AF0EE400A4AEE9F
:1057A000610AB0EE680A00EE810A8DED0B0AB0EED8
:1057B000000ACAEE800A9DED1F0A28EE800A9DEDC0
:1057C0001D1A09EE810A9DED1E1A0AEE410AF0EE3D
:1057D00049DA40EE20DAB0EE000ACAEE800A9DED0A
:1057E0001E0A28EE800A9DED1D1A09EE410A9DED64
:1057F0001F1A0AEE010AB0EE69EA00EE20EAB0EEE6
:10580000000ACAEE800A9DED1D0A28EE800A9DED71
:105810001E1A09EE010A9DED1F1A09EEC10AF0EEEB
:105820004AEA40EE20EADDED0B0A60EEA00A4DEEFA
:10583000AD0A4EEE0E0A4EEEAE0AB0EE600AFFF76B
:10584000B6FCB0EE408A9DED0B0A20EE080A84ED0E
:10585000000A2DEE880A84ED010A2EEE080A84ED76
:10586000020A2EEE880A84ED030A21B0BDEC108BEB
:10587000F0BD10B52DED108B87B00346B0EE405A49
:105880000C461FED970AB0EE407AB0EE000AB0EE7B
:1058900040BA93ED000AB0EE403A93ED010AF0EE03
:1058A000403A93ED020AB0EE404A93ED030AF0EE5F
:1058B000404A23EE030AF0EE40BA23EE230AB0EE8C
:1058C00040CA23EE040AF0EE40CA23EE240AF0EEAA
:1058D00040FA23EEA30AB0EE40DA23EE840A8DEDFF
:1058E000000A23EEA40AF0EE40DA24EE040AB0EE39
:1058F00040EA24EE240AF0EE40EA24EEA40AB0EED8
:1059000040FA94ED000A8DED060A94ED010A8DED42
:10591000050A94ED020A8DED040A92ED000A8DED60
:10592000030A92ED010A8DED020A92ED020A8DED55
:10593000010A9DED030AB5EEC00AF1EE10FA0DD191
:105940009DED020AB5EEC00AF1EE10FA06D19DED0A
:10595000010AB5EEC00AF1EE10FA2FD0DDED030A10
:105960009DED031A60EE810A9DED021ADDED021A2B
:1059700041EE210A9DED011ADDED011A41EE210AE9
:10598000B0EE600AFFF713FCF0EE402ADDED030AEB
:10599000B0EE620A20EE800A8DED030ADDED020A08
:1059A000B0EE620A20EE800A8DED020ADDED010AFA
:1059B000B0EE620A20EE800A8DED010A3DEEEC0A9F
:1059C000F0EE000A60EE207A3CEE2E0AF0EE000ABD
:1059D00020EE208A3BEECD0A30EE4E0A70EE0F8AA2
:1059E0009DED020A20EE280ADDED010AB0EE409A94
:1059F00000EEC89A9DED010A20EE270ADDED030AAC
:105A0000F0EE409A40EEE89A9DED030A20EE080A77
:105A1000DDED020AB0EE40AA00EEE7AAB5EEC07ACC
:105A2000F1EE10FA15DD284890ED000A30EE090A73
:105A300080ED000A254890ED000A30EE290A80ED3D
:105A4000000A234890ED000A30EE0A0A80ED000AB1
:105A50000EE09FED1C0A1C4880ED000A9FED190A1C
:105A60001A4880ED000A9FED170A194880ED000AD8
:105A70002BEE090A1448D0ED000A07EE200ADDEDEE
:105A8000060A30EE200A8DED060A2BEE290A0F4891
:105A9000D0ED000A07EE200ADDED050A30EE200AFF
:105AA0008DED050A2BEE0A0A0948D0ED000A07EE33
:105AB000200ADDED040A0DE06402002068020020E7
:105AC0006C02002000000000700200207402002020
:105AD0007802002030EE200A8DED040AB0EE000AB4
