:020000040800F2
:10000000A023022075EC0008F5470008F747000818
:10001000FB470008FF4700080348000800000000F5
:10002000000000000000000000000000C501000802
:100030000748000800000000190200085F4300089C
:1000400099EC000899EC000899EC000899EC00087C
:1000500099EC000899EC000899EC000899EC00086C
:1000600099EC000899EC000899EC000899EC00085C
:1000700099EC000899EC000899EC000899EC00084C
:1000800099EC000899EC000899EC000899EC00083C
:100090004973000899EC000899EC000899EC0008F5
:1000A00099EC000899EC000899EC000899EC00081C
:1000B00099EC00087943000899EC000899EC0008D5
:1000C00099EC000899EC000899EC000899EC0008FC
:1000D00099EC000865340008D3790008D37700084C
:1000E00099EC000899EC000899EC000899EC0008DC
:1000F00099EC000899EC000899EC000899EC0008CC
:1001000099EC000899EC000899EC000899EC0008BB
:1001100099EC000899EC000899EC000899EC0008AB
:1001200099EC000899EC000899EC000899EC00089B
:1001300099EC000899EC000899EC000899EC00088B
:100140008374000899EC000899EC000899EC000809
:1001500099EC000899EC000899EC0008B37F0008BE
:1001600099EC000899EC000899EC000899EC00085B
:1001700099EC000899EC000899EC000800000000D8
:1001800099EC000899EC00088B87000899EC0008AE
:1001900099EC000899EC000899EC000899EC00082B
:1001A000000000000000000099EC0008DFF810D00B
:1001B0000FF02EF900480047D1470008AFF3008048
:1001C000A02302202A4B19680868B0E8F04F80F39A
:1001D0000988BFF36F8F4FF0000080F311887047DC
:1001E0000000000006480068006880F3088862B6D6
:1001F00061B6BFF34F8FBFF36F8F00DF00BF00BF4B
:1002000008ED00E0DFF80C00016841F470010160C6
:10021000704700BF88ED00E0EFF30980BFF36F8FF8
:10022000134B1A681EF0100F08BF20ED108A20E94A
:10023000F04F106008B44FF0500080F31188BFF306
:100240004F8FBFF36F8F0AF024F94FF0000080F357
:10025000118808BC19680868B0E8F04F1EF0100F4C
:1002600008BFB0EC108A80F30988BFF36F8F704726
:1002700054020020EFF3058070470000012002497E
:100280000870002048707047000000202DE9FC41F4
:1002900004460D4616461F46ADF80040ADF8025024
:1002A000ADF80460ADF80670002003F0C0FE40B168
:1002B0000020ADF80000ADF80200ADF80400ADF884
:1002C000060004236A46D901FE4807F009F9BDE893
:1002D000FC819FEDFD1AB0EE410A9FEDFC1AF0EE95
:1002E000410AFB48006C008801EE100AB8EE411A82
:1002F000F0EE410AF4EEC00AF1EE10FA07D280EEF9
:10030000801A21EE011AF24880ED141A04E0B7EECB
:10031000001AEF4880ED141A704710B52DED0E8BC2
:10032000EB4890F8580002281AD1002015E000EBA5
:10033000400101EB0012E6495C3101EBC20191ED95
:10034000110A00EB400101EB0012E1495C3101EBC5
:10035000C20181ED120A411CC8B20328E7DD90E119
:10036000DB4890F8580020B1D94890F8580001288F
:100370007ED1D748D0F8BC0290ED000ADFEDD50A57
:1003800030EE200A10EE101A08460EF0DDFE41ECA9
:100390001B0B9FEDD10B53EC102B0EF048FE41ECE4
:1003A0001A0B9FEDCF0B53EC102B0EF0CEFD41EC52
:1003B000190B0EF0F5FE0446C54890ED010A10EE4B
:1003C000101A08460EF0C0FE41EC1C0B20460EF041
:1003D000BBFE41EC1E0BB0EE4E0AF0EE6E0A10F0C2
:1003E0000FF9B0EE40DAF0EE60DA53EC1C2B51EC72
:1003F0001D0B0EF0AAFD41EC1A0BB54890ED000A5A
:1004000010EE101A08460EF09FFE41EC1C0B204621
:100410000EF09AFE41EC1E0BB0EE4E0AF0EE6E0AA4
:1004200010F08AF8B0EE40DAF0EE60DA53EC1C2BF4
:1004300051EC1D0B0EF089FD41EC1B0B53EC1A2BFC
:100440000EF07DFD41EC190B0EF0AAFEA049C8602C
:10045000084690ED010A10EE101A08460EF074FEE0
:1004600041EC1C0B20460EF06FFE41EC1E0B00E031
:10047000F5E0B0EE4E0AF0EE6E0A10F05DF8B0EE68
:1004800040DAF0EE60DA53EC1C2B51EC1D0B0EF051
:100490005CFD41EC1A0B8E4890ED000A10EE101A2C
:1004A00008460EF051FE41EC1C0B20460EF04CFEAF
:1004B00041EC1E0BB0EE4E0AF0EE6E0A10F0A0F802
:1004C000B0EE40DAF0EE60DA53EC1C2B51EC1D0B71
:1004D0000EF03BFD41EC1B0B53EC1A2B0EF08EFC87
:1004E00041EC190B0EF05CFE79490861084690ED6D
:1004F000020A80ED050A90ED030AD0ED040A30EE01
:10050000600AD0ED050A30EE600A80ED3C0A90EDFD
:10051000030AD0ED040A30EE200AD0ED050A30EED1
:10052000600A80ED620A90ED030AB1EE400AD0ED58
:10053000040A30EE200AD0ED050A30EE600A80EDA4
:10054000880A90ED030AB1EE400AD0ED040A30EEBD
:10055000600AD0ED050A30EE600A80EDAE0A90ED3B
:100560002F1AF0EE410A90ED3C1AB0EE410A9FEDD1
:100570005E1A05F03FFD564890ED551AF0EE410A1F
:1005800090ED621AB0EE410A9FED571A05F032FD68
:100590004F4890ED7B1AF0EE410A90ED881AB0EECC
:1005A000410A9FED511A05F025FD494890EDA11A29
:1005B000F0EE410A90EDAE1AB0EE410A9FED4A1AF4
:1005C00005F018FD424890ED3C1AF0EE410A90ED1E
:1005D0002F1AB0EE410A5C3005F0ABFF3C4890EDBD
:1005E000621AF0EE410A90ED551AB0EE410AF4306D
:1005F00005F09FFF364890ED881AF0EE410A90ED25
:100600007B1AB0EE410A00F5C67005F092FF304843
:1006100090EDAE1AF0EE410A90EDA11AB0EE410A4B
:1006200000F5097005F085FF002015E000EB4001A2
:1006300001EB001226495C3101EBC20191ED0A0A7F
:1006400000EB400101EB001221495C3101EBC201DA
:1006500081ED120A411CC8B20328E7DD11E0002039
:100660000DE09FED1A0A00EB400101EB0012184962
:100670005C3101EBC20181ED120A411CC8B20328B2
:10068000EFDD1348D0ED290AB0EE600A05F027FD32
:10069000F0EE408A0E48D0ED4F0AB0EE600A05F049
:1006A0001EFD78EE808A0A48D0ED750AB0EE600A29
:1006B00005F015FD78EE808A0548D0ED9B0AB0EE76
:1006C000600A13E000640040000070420000000077
:1006D000DC0200200000FA420000000000806640BA
:1006E00000000060FB2109400000C84205F0F7FC53
:1006F00038EE808AFD4890ED130AD0ED140A20EE02
:10070000200AB4EEC80AF1EE10FA26D2D0ED130A90
:1007100090ED141A60EE810A80EE881AB0EE410A5C
:10072000002017E000EB400101EB0012EF495C31C3
:1007300001EBC201D1ED0A0A60EE800A00EB400134
:1007400001EB0012E9495C3101EBC201C1ED0A0A7B
:10075000411CC8B20328E5DD00BF00201AE000EB11
:10076000400101EB0012E1495C3101EBC20191ED66
:10077000120ABDEEC00A10EE101A0AB200EB4001D8
:1007800001EB0013D9495C3101EBC301A1F85C20F6
:10079000411CC8B20328E2DDBDEC0E8B10BD10B5C4
:1007A000D348007D00F0100060B9D148007D00F012
:1007B000200038B9CE48807A012807D1CC48C07AC9
:1007C000022803D10120C94981F8C002C74890F826
:1007D000C00201280DD19FEDC70AC44880ED130A5D
:1007E0009FEDC50A80ED060A9FEDC30A80ED070A5A
:1007F0000CE09FEDC20ABD4880ED130A9FEDC00AD0
:1008000080ED060A9FEDBE0A80ED070AB748D0EDDD
:10081000081AB0EE611AD0ED081AF1EE611AF0EE86
:10082000610AD0ED021AB0EE610A05F042FDAF4850
:1008300080ED020AD0ED061AB0EE611AD0ED061A6C
:10084000F1EE611AF0EE610AD0ED001AB0EE610A25
:1008500005F02FFDA54880ED000AD0ED071AB0EE97
:10086000611AD0ED071AF1EE611AF0EE610AD0EDCF
:10087000011AB0EE610A05F01CFD9C4880ED010AEA
:1008800010BD10B59948D0ED2D0AB0EE600AC03009
:1008900005F039FB954880ED2F0AD0ED530AB0EEF4
:1008A000600A00F5AC7005F02EFB904880ED550A0B
:1008B000D0ED790AB0EE600A00F5F87005F023FB80
:1008C0008A4880ED7B0AD0ED9F0AB0EE600A00F501
:1008D000227005F018FB854880EDA10A10BD834801
:1008E00090F85800814991F85910884211D07F48FA
:1008F00090F858007D4981F85900084690F8580052
:1009000038B90846D0F8BC0290ED000A084680EDE0
:10091000B10A704710B504467448D0F8A4030069C2
:1009200020B17249D1F8A413086980476F48C0F814
:10093000A44300206D4981F8A8030846D0F8A40319
:10094000407881F858000846D0F8A403C06818B170
:10095000D1F8A413C868804710BD10B5694C07E0F2
:100960006068804718B12046FFF7D4FF05E01834CF
:100970005E48D0F8A403A042F2D800BF5B49D1F88A
:10098000A4138868804780B15848D0F8A44307E092
:100990006068804718B12046FFF7BCFF10BD1834CF
:1009A000584890308442F3D300E0F7E755481830B8
:1009B000FFF7B0FF00BFF1E7F0B505ACD0CC089D64
:1009C00030B1002904DB062902DA0BB104B105B904
:1009D000F0BD0170456143608460C660076142708C
:1009E00000BFF5E71FB5484840494864001D08644A
:1009F00002F06EFC3D4948629FED410A084680EDD9
:100A0000060A9FED3F0A80ED070A9FED3D0A80ED43
:100A1000080A3C21A0F848109FED380A80ED130A1F
:100A2000002180F854100220304981F8580081F8E4
:100A3000590013212D4880F8B01080F8481180F833
:100A4000E01180F8781290EDB20AF0EE403A012100
:100A5000BFEE004A9FED2D3A5FEDE42A9FED2C2A70
:100A6000DFED2C1AB2EE041A5FEDE80AB1EE080AC7
:100A700000F5347005F0F8FC0021BFEE004AFFEEEF
:100A8000003AB3EE0A3AFFEE002A9FED232A5FED0B
:100A9000F11A1FEDEB1AF5EE000A1FEDF50A1348E7
:100AA0005C3005F0E1FC0021BFEE004AFFEE003AA9
:100AB000B3EE0A3AFFEE002A9FED172A5FEDFD1A0A
:100AC0001FEDF71AF5EE000A9FED140A0748F430FF
:100AD00005F0CAFC0021BFEE004AFFEE003AB3EE7B
:100AE0000A3AFFEE002A9FED0C2A19E0DC020020F2
:100AF000A40F002000401C470000FA430050C346EA
:100B00000000C843F005002048130020CDCC8C40E5
:100B100000007A43CDCC4C3F00007A460000704282
:100B2000DFEDC11A9FEDC11AF5EE000A1FED050AAF
:100B3000BF4805F099FC0021BFEE004AFFEE003AE5
:100B4000B3EE0A3AFFEE002A1FED0D2ADFEDB61ACA
:100B50009FEDB61AF5EE000A1FED100AB448983062
:100B600005F082FCDFEDB30AB7EE000AB048CC38DE
:100B700005F0ACF9DFEDAF0AB7EE000AAC48343847
:100B800005F0A4F9DFEDAB0AB7EE000AA84864301F
:100B900005F09CF9DFEDA70AB7EE000AA448FC3087
:100BA00005F094F9A448A549C1F8BC029FEDA40A38
:100BB000084680EDB20A9FEDA30A80EDB30AA24871
:100BC0000021A24BCDE90031A14B0122CDE9021059
:100BD000A048FFF7F1FEA0480021A04BCDE900316D
:100BE0009F4B0222CDE9021001219A481830FFF7ED
:100BF000E3FE9C4800219C4BCDE900319B4B022237
:100C0000CDE90210114693483030FFF7D5FE9848E1
:100C10000021984BCDE90031974B0122CDE902101C
:100C200003218C484830FFF7C7FE94480021944BBD
:100C3000CDE90031934B0122CDE902100421854812
:100C40006030FFF7B9FE90480021904BCDE90031AC
:100C50008F4B0A46CDE9021005217E487830FFF718
:100C6000ABFE7C4818307549C1F8A4031FBD08B518
:100C7000FFF7B8FE042009F0DCFA09F009FE009045
:100C8000D1E06E4890ED2F0A824880ED000A6B4853
:100C900090ED550A804880ED000A684890ED7B0A87
:100CA0007E4880ED000A654890EDA10A7C4880ED01
:100CB000000A7C4890ED020ABCEEC00A10EE100A51
:100CC0007949088077488089784908805B48D0F85E
:100CD000BC0290ED000ABCEEC00A10EE100A744986
:100CE0000880564890EDB10ABCEEC00A10EE100A1A
:100CF0006E490880FFF731FEFFF7F1FDFFF7C1FDF8
:100D00004E48D0F8A403407802280DD14B48D0F8C3
:100D1000A403504BAC3BA3F19802A2F198014469A3
:100D2000A1F19800A04714E04448D0F8A40340780B
:100D300028B14248D0F8A4034078012809D13F489F
:100D4000D0F8A40300233D4A0832111F4469081F4C
:100D5000A047FFF724FD3948283002F0EFFBFFF7EA
:100D6000DCFA3648006C0088524901EB800090EDB7
:100D7000000A324880ED140AFFF7ABFA2F4CB4F9A1
:100D8000804200EE104AB8EEC00A2C4CD4ED140A92
:100D900020EE200ABDEEC00A10EE104A23B2274C06
:100DA000B4F9E84100EE104AB8EEC00A234CD4ED85
:100DB000140A20EE200ABDEEC00A10EE104A22B23C
:100DC0001E4CB4F9504100EE104AB8EEC00A1B4C5C
:100DD000D4ED140A20EE200ABDEEC00A10EE104A2F
:100DE00021B2164CB4F9B84000EE104AB8EEC00A71
:100DF000124CD4ED140A20EE200ABDEEC00A10EE0B
:100E0000104A20B2FFF742FA0C4CB4F98032B4F920
:100E1000E821B4F95011B4F9B800FFF737FA04210A
:100E2000684609F0A2F92CE7000000000000C84263
:100E30006804002000002042380B0020DC02002063
:100E400000003443000034C3C10E0008BD0E00088A
:100E5000B90E0008F00500200D100008FD0F000875
:100E6000AF0F000861100008511000082F10000893
:100E7000E3100008B71000088B10000841130008A9
:100E80002F1300081D1300088D1400088914000892
:100E9000851400080C000020100000201400002021
:100EA000180000204013002004000020060000204D
:100EB00008000020A8160108012070470020704794
:100EC0002DE9F0412DED068B04460D4616461F46D2
:100ED000002003F0ACF810B90CB105B17EB99FED5C
:100EE000FA0A84ED000A9FEDF80A85ED000A9FEDED
:100EF000F60A86ED000ABDEC068BBDE8F081F348EA
:100F0000807A022851D1F148C07A02284DD1EF49A8
:100F1000B1F900000EF0FAF841EC1A0B9FEDEC0B62
:100F200053EC102B0EF083F841EC190B9FEDEA0BFC
:100F300053EC102B0EF009F841EC180B0EF030F9C1
:100F40002060E249B1F902000EF0E0F841EC1A0B22
:100F50009FEDDF0B53EC102B0EF069F841EC190BF1
:100F60009FEDDF0B53EC102B0DF0EFFF41EC180B56
:100F70000EF016F92860D549B1F904000EF0C6F854
:100F800041EC1A0B9FEDD20B53EC102B0EF04FF8E7
:100F900041EC190B9FEDD00B53EC102B0DF0D5FF4E
:100FA00041EC180B0EF0FCF8306000BFA3E710B561
:100FB000002003F03CF878B9032003F038F858B962
:100FC000042003F034F838B9052003F030F818B9DC
:100FD000062003F02CF808B1012010BDC24840786B
:100FE000022804DAC0480078012800D1F5E7BE489D
:100FF000007808B90120F0E70020EEE710B5FFF710
:10100000D6FF08B1002010BD0120FCE79FEDAE0A1D
:1010100080ED000A9FEDAC0A81ED000A9FEDAA0A5F
:1010200082ED000A9FEDA80A83ED000A7047AE48E2
:101030004078022803D1AC480078012804D0AB489E
:1010400090F8B400022801D1012070470020FCE78D
:1010500000B5FFF7ECFF08B1002000BD0120FCE760
:1010600030B59FED990A80ED000A9FED970A81ED5A
:10107000000A9FED950A82ED000A9FED930A83ED29
:10108000000A0324984D6C7030BD9048808A00F4AB
:10109000007060B98D48807A02280AD18B48C07AE6
:1010A000022806D1924890F83300022801D001208E
:1010B00070470020FCE78548808A00F4806060B9B2
:1010C0008248807A02280AD18048C07A032806D153
:1010D000874890F83300032801D001207047002092
:1010E000FCE72DE9F0412DED0A8B05460E4614462E
:1010F0001F460DB106B11CB9BDEC0A8BBDE8F081ED
:101100007248007D00F0010048B17A4890ED000A75
:10111000F0EE000A30EE200A80ED000A13E06B4882
:10112000007D00F0020048B1724890ED000AF0EE38
:10113000000A30EE600A80ED000A04E09FED620ACA
:101140006C4880ED000A6148007D00F0040048B161
:10115000694890ED000AF0EE000A30EE600A80ED7A
:10116000000A13E05948007D00F0080048B16248C9
:1011700090ED000AF0EE000A30EE200A80ED000A41
:1011800004E09FED510A5C4880ED000A4F48808AD8
:1011900000F4007028B1B7EE000A584880ED000A4C
:1011A00004E09FED490A554880ED000A534890ED50
:1011B000000AB5EEC00AF1EE10FA04D19FED500A14
:1011C00084ED000A32E04A48D0F8BC0290ED000AF3
:1011D00010EE101A08460DF0B7FF41EC1C0B9FED06
:1011E000490B53EC102B0DF022FF41EC1B0B9FED34
:1011F000470B53EC102B0DF0A8FE41EC1A0BB0EE90
:101200004A0AF0EE6A0A0FF097F9B0EE409AF0EE53
:10121000609A9FED400B53EC102B51EC190B0DF025
:1012200094FE41EC180B0DF0BBFF206031480068C4
:101230000DF08AFF41EC190B2449B1F902000DF0C1
:1012400065FF41EC1C0B9FED220B53EC102B0DF0B6
:10125000EEFE41EC1B0B9FED2F0B53EC102B0DF012
:1012600074FE41EC1A0B53EC192B0DF0C7FD41EC49
:10127000180B0DF095FF28601F4800680DF064FF03
:1012800041EC190B1149B1F900000DF03FFF41ECA1
:101290001C0B9FED0F0B53EC102B0DF0C8FE41EC17
:1012A0001B0B9FED1C0B53EC102B0DF04EFE41EC75
:1012B0001A0B53EC192B0DF0A1FD41EC180B0DF09E
:1012C0006FFF306000BF17E700000000A40F002090
:1012D0000000000000A0844000000000000079C071
:1012E0000000000000007940000000208806002077
:1012F000DC0200201C000020200000202400002030
:1013000000004843000000000080664000000060CC
:10131000FB2109400000000000006940D348808A9A
:1013200000F4006008B1012070470020FCE7CF48BE
:10133000808A00F4806008B1012070470020FCE73B
:101340002DE9F0412DED0A8B04460D4616461F4649
:10135000C648007D00F0010048B1C54890ED000A84
:10136000F1EE040A30EE200A80ED000A13E0BF48D7
:10137000007D00F0020048B1BD4890ED000AF1EE9A
:10138000040A30EE600A80ED000A04E01FED320A24
:10139000B74880ED000AB548007D00F0040048B170
:1013A000B44890ED000AF1EE040A30EE600A80EDD8
:1013B000000A13E0AD48007D00F0080048B1AD48D8
:1013C00090ED000AF1EE040A30EE200A80ED000AEA
:1013D00004E01FED430AA74880ED000AA448006816
:1013E0000DF0B2FE41EC190BA049B1F902000DF06D
:1013F0008DFE41EC1C0B1FED4A0B53EC102B0DF036
:1014000016FE41EC1B0B1FED4A0B53EC102B0DF09D
:101410009CFD41EC1A0B53EC192B0DF0EFFC41EC49
:10142000180B0DF0BDFE2060924800680DF08CFE98
:1014300041EC190B8D49B1F900000DF067FE41EC4C
:101440001C0B1FED5D0B53EC102B0DF0F0FD41EC70
:101450001B0B1FED5D0B53EC102B0DF076FD41ECDB
:101460001A0B53EC192B0DF0C9FC41EC180B0DF0C5
:1014700097FE28601FED6C0A86ED000ABDEC0A8B12
:10148000BDE8F08101207047002070472DE9F04150
:101490002DED0C8B04460D4616461F460CB105B1CA
:1014A0001EB9BDEC0C8BBDE8F0817048007D00F0EA
:1014B000010048B1704890ED000AF0EE000A30EEED
:1014C000200A80ED000A13E06848007D00F0020069
:1014D00048B1694890ED000AF0EE000A30EE600A6B
:1014E00080ED000A04E01FED880A634880ED000AE1
:1014F0005E48007D00F0040048B1604890ED000AAD
:10150000F0EE000A30EE600A80ED000A13E0574862
:10151000007D00F0080048B1584890ED000AF0EE58
:10152000000A30EE200A80ED000A04E01FED9A0A5E
:10153000524880ED000A524890EDB20AB0EE402ABF
:1015400090EDB30AF0EE401A90EDB10AF0EE400AC9
:101550009FED4C1A1FEDA40A04F07FFD484880ED72
:10156000B10A90EDB11AF0EE410AD0F8BC0290ED4C
:10157000001AB0EE410A444804F0DBFF3E48006820
:101580000DF0E2FD41EC1A0B3849B1F902000DF003
:10159000BDFD41EC1D0B1FEDB20B53EC102B0DF0FC
:1015A00046FD41EC1C0B1FEDB20B53EC102B0DF064
:1015B000CCFC41EC1B0B53EC1A2B0DF01FFC41EC47
:1015C000190B0DF0EDFD08EE100AD4ED000AB0EE97
:1015D000600A9FED2C1AF0EE480A04F00BFD84ED32
:1015E000000A264800680DF0AFFD41EC1B0B1F49B7
:1015F000B1F900000DF08AFD41EC1D0B1FEDCC0B85
:1016000053EC102B0DF013FD41EC190B1FEDCC0B1F
:1016100053EC102B0DF099FC41EC1C0B53EC1B2BE5
:101620000DF0ECFB41EC1A0B0DF0BAFD08EE100AC0
:10163000D5ED000AB0EE600A9FED121AF0EE480AEE
:1016400004F0D8FC85ED000A0D4890EDBE1AF0EECE
:10165000410A96ED001AB0EE410A9FED0A1A04F015
:10166000C9FC86ED000A00BF1BE70000A40F0020A4
:10167000280000202C000020300000203400002032
:10168000DC020020EC51383FAC0500202DE9F04190
:1016900006460F4614461D46042E04D194ED550A05
:1016A00084ED560A78E0012E00D0E6BB04F59E7169
:1016B00001EB860191ED001AF0EE410A04F59A71F2
:1016C00001EB860191ED001AB0EE410A06EB06121D
:1016D00004F1180101EBC20101F1440004F029FFFB
:1016E00006EB061104F1180000EBC10090ED1B0A97
:1016F00004F5A67000EB860080ED000A04F5A671E3
:1017000001EB860191ED001AB1EE411AF0EE410AAB
:1017100004F5A27101EB860191ED001AB0EE410AC9
:1017200006EB061200E010E004F1180101EBC20024
:1017300004F0FFFE06EB061104F1180000EBC100F7
:1017400090ED0A0A84ED560A26E0022E10D194ED9F
:10175000531AF0EE410A94ED511AB0EE410A04F129
:10176000180004F0E6FE94ED100A84ED560A13E02A
:10177000032E11D194ED541AB1EE411AF0EE410A44
:1017800094ED521AB0EE410A04F1A00004F0D1FE2B
:1017900094ED320A84ED560A94ED560ABDEEC00A65
:1017A00010EE100A00B22082042F04D195ED550AE4
:1017B00085ED560A74E0012F00D0E7BB05F59E7158
:1017C00001EB870191ED001AF0EE410A05F59A71DF
:1017D00001EB870191ED001AB0EE410A07EB071209
:1017E00005F1180101EBC20101F1440004F0A1FE72
:1017F00007EB071105F1180000EBC10090ED1B0A83
:1018000005F5A67000EB870080ED000A05F5A671CE
:1018100001EB870191ED001AF0EE410A05F5A27186
:1018200001EB870191ED001AB0EE410A07EB0712B8
:1018300005F1180100E00EE001EBC20004F079FEB2
:1018400007EB071105F1180000EBC10090ED0A0A43
:1018500085ED560A24E0032F10D195ED541AF0EED1
:10186000410A95ED521AB0EE410A05F1A00004F0CC
:1018700060FE95ED320A85ED560A11E0022F0FD178
:1018800095ED531AF0EE410A95ED511AB0EE410A6A
:1018900005F1180004F04DFE95ED100A85ED560A8D
:1018A00095ED560ABDEEC00A10EE100A00B228826D
:1018B000BDE8F0812DE9F0412DED048BFA4890F858
:1018C0008C63012E00D0DEB9F848D0ED4B1AB0EE93
:1018D000611AD0ED4C1AF0EE610A00F59E7000EB33
:1018E0008600D0ED001AB0EE610A04F002FDF3EEBE
:1018F0000E0A30EE600AEE4800EB860080ED000A2A
:10190000E94890F8D400012807D0E74890F8D400BF
:1019100018B1BDEC048BBDE8F081E34890F8D40029
:1019200001280AD1B4276FF0B308DF48D0ED7B8AD5
:1019300090ED7C8A00F5007469E0DB4890F8D400F3
:10194000002864D1DB4CB4276FF0B308D648D0ED43
:101950007B0A90ED7E1A70EEC10AB0EE600A9FED30
:10196000D61ADFEDD60A04F0C4FCB0EE409ACE4899
:10197000D0ED7C0A90ED7E1A70EEC10AB0EE600ADE
:101980009FEDCD1ADFEDCD0A04F0B3FCF0EE409AE6
:10199000DFEDCB0A89EE200ADFEDC90A20EE200A2E
:1019A000B0EE409ADFEDC60A89EEA00ADFEDC40A68
:1019B00020EE200AF0EE409ABB48D0ED7D0A70EE92
:1019C000890AB0EE600A9FEDBC1ADFEDBC0A04F094
:1019D00090FCF0EE408AB448D0ED7D0A70EEA90A82
:1019E000B0EE600A9FEDB41ADFEDB40A04F081FC9A
:1019F000B0EE408AF4EEC88AF1EE10FA06D2B0EEEC
:101A0000680AF0EE488AB0EE408A00BF00BF07EBDC
:101A1000080000EBD07149100DB2A7EB080000EBF5
:101A2000D071491000EE101AB8EEC00A78EEC80A5C
:101A3000B4EEE00AF1EE10FA29D294ED000AB4EE09
:101A4000C80AF1EE10FA0DDDD4ED000A00EE105ACE
:101A5000B8EEC00AF4EEC00AF1EE10FA02D284ED3C
:101A6000008A20E094ED000AB4EEE80AF1EE10FAE4
:101A700019D2D4ED000A00EE105AB8EEC00AF4EE06
:101A8000C00AF1EE10FA0EDDC4ED008A0BE0D4EDD1
:101A9000000AB0EE600AB0EE681AF0EE480A04F0F0
:101AA00008FC84ED000A00BF33E70246501AB0F587
:101AB000805F03DDA0F5F850FF3805E010F5805F8A
:101AC00002DA41F6FF73184400EE100AB8EEC00ABD
:101AD000DFED7C0A20EE200A704710B5044604B9F9
:101AE00010BDE06990ED0A0A84ED7D0AB4F8E811B2
:101AF000C622125B90B2FFF7D8FFB1EE400A84ED28
:101B00007E0AE06990ED000A84ED810A94ED810A75
:101B100084ED820AB4F8A01440F27E32125B90B2D7
:101B2000FFF7C3FFB1EE400A04F55E7080ED4D0A89
:101B3000B4F8A01440F27E32125B90B2FFF7B5FF0A
:101B4000B1EE400A04F55E7080ED4E0AE06990ED5A
:101B5000020AF3EE0E0A20EE200A04F55E7080ED14
:101B6000510A90ED510A80ED520A00BFB8E74E4885
:101B700090F8D40054490978884223D04A4991F812
:101B8000D400012800D058B94A49083901EB800136
:101B900091ED000A474901EB800181ED000A0EE05A
:101BA000032805D19FED490A3F4981ED840A06E0EB
:101BB000022804D19FED450A3B4981ED830A424941
:101BC000087000BF384890F88C0341490978884272
:101BD00023D0354991F88C03012800D058B93449F5
:101BE000083901EB800191ED000A314901EB8001D8
:101BF00081ED000A0EE0032805D19FED340A2B4940
:101C000081ED540A06E0022804D19FED300A2749ED
:101C100081ED530A2E49087000BF704710B5044685
:101C20002148D0F8B000406920B11F49D1F8B01068
:101C3000486980471C48C0F8B04000201A4981F824
:101C4000B5006178184880F88C13217880F8D4109A
:101C500000200DE000EB40021349203101EBC201EE
:101C6000A14203D1104981F8B40003E0411CC8B27D
:101C70000628EFDB00BF0C48D0F8B000006920B1A7
:101C80000949D1F8B0100869804710BD10B5064C5D
:101C9000203420E0A068E8B1A0688047D0B1204699
:101CA000FFF7BCFF10BD000088060020000A0020DE
:101CB0003C0B00208408002000003443000034C3A3
:101CC0000000B443A105343D6C000020000000007A
:101CD0006D0000201834F948D0F8B000A04203D0BD
:101CE000F648B0308442D5D1F448D0F8B000C0688E
:101CF000D0B1F249D1F8B010C8688047A0B1EF4820
:101D0000D0F8B04009E0A06830B1A068804718B1B1
:101D10002046FFF783FF10BD1834E848B0308442F6
:101D2000F1D17838FFF77AFF00BFF4E7F0B505ACE2
:101D3000F0CC0BB104B105B9F0BD43608460C5605F
:101D4000066147610170427000BFF5E710B50021E0
:101D50009FEDDB4ADFEDDB3A9FEDDA3A5FED252AB6
:101D60009FEDD92A5FED271A9FEDD81AF0EE040AED
:101D70009FEDD70AD74804F077FB01211FED2D4ACC
:101D80005FED333A1FED2F3A5FED302A9FEDD02AF9
:101D90005FED321AB2EE001AF6EE000AB1EE000A5A
:101DA000CC48443004F060FB00219FEDC54ADFEDD4
:101DB000C43A9FEDC93A5FED3B2A9FEDC32A5FED20
:101DC0003D1A1FED3E1AF0EE040A9FEDC40AC14809
:101DD000883004F049FB01211FED444A5FED4A3A87
:101DE0001FED463A5FED472A9FEDB92A5FED491A8C
:101DF000B0EE001A5FED4B0AB1EE040AB548CC30E4
:101E000004F032FB00219FEDAE4AF1EE043AB0EE51
:101E1000003A5FED522A9FEDAC2A5FED541A9FED18
:101E2000A91ADFEDAF0A9FEDAF0AA448D83004F03D
:101E30001BFB01211FED5B4A5FED613A1FED5D3A2F
:101E40005FED5E2AB1EE042A5FED601A9FEDA61ADF
:101E5000DFEDA60A9FEDA60AA64804F005FB0021C7
:101E60009FEDA54ADFEDA53A9FEDA43A5FED692A03
:101E70009FED952A5FED6B1A1FED6C1AF6EE000AC6
:101E80009FED9F0A9B48443004F0EEFA01211FEDBC
:101E9000714A5FED773A1FED733A5FED742A9FED5B
:101EA000902A5FED761A9FED971ADFED910AB3EE57
:101EB000040A9048883004F0D7FA10BD1FB5924844
:101EC0007E49C8619148C1F8B800401CC1F8BC0007
:101ED00001F0FEF979490860081D01F02FFB08F0B8
:101EE000D7FC0446082041F6FF73002281495C3983
:101EF000CDE90040864806F007FB08F0C9FC04461F
:101F0000082041F6FF73002272491839CDE90040DC
:101F1000804806F0F9FA0421684880F8D41080F867
:101F2000D51040F64421A0F8E8119FED7B0A80ED22
:101F30007B0A9FED7A0A80ED7C0A042180F88C13DD
:101F400080F88D1340F62821A0F8A0141FEDA60AF2
:101F500000F55E7080ED4B0A1FEDA80A80ED4C0A7B
:101F60005648FFF7BAFD5B48183890ED4E0A80EDF1
:101F7000500A90ED4D0A80ED4F0A504890ED7E0AD0
:101F800080ED800A90ED7D0A80ED7F0A0020644A92
:101F9000644BCDE9012000930390634B024601217D
:101FA00046482030FFF7C2FEFFF7D0FE00205F4A10
:101FB0005F4BCDE90120009303905E4B0422114654
:101FC0003E483830FFF7B2FE00205B4A5B4BCDE95C
:101FD0000120009303905A4B01221146374850309C
:101FE000FFF7A4FE0020574A574BCDE9012000938C
:101FF0000390564B024601463E488438FFF796FE52
:102000002E4838302D49C1F8B0001FBD08B5FFF784
:1020100055FF022008F00DF908F03AFC0090CAE0E4
:102020002C48183890ED4F0ABDEEC00A484880EDA4
:10203000000A2848183890ED4D0ABDEEC00A454800
:1020400080ED000A1D4890ED800ABDEEC00A4248AE
:1020500080ED000A194890ED7E0ABDEEC00A3F48A7
:1020600080ED000A154890ED7D0ABDEEC00A3C489F
:1020700080ED000A1148B0F9C6003A490860FFF740
:1020800005FEFFF774FD0D48FFF727FD0B48D0F85C
:10209000B00004780948D0F8B0004578324800EB29
:1020A0008506012C00D044B90448D0F8B00001786E
:1020B0001048E03000EB810765E057E0880600201B
:1020C00000401C4600007A440060EA4600007A4363
:1020D0000000FA43180A0020000096430000C8439D
:1020E0000000C84200409C45CDCC4C3FCDCC4C3D7F
:1020F000CDCC4C3EA407002000204B460000FA4403
:102100000000164300000C42CC100020000000200C
:10211000B00C0020D80C002000009042000088C2C3
:10212000392200083D22000841220008F52300085A
:102130008F23000809240008732400085524000890
:102140008D240008DB260008D7260008DF260008BB
:102150005000002054000020380000203C000020E7
:10216000440000205C0000203C0B0020042C01D126
:102170002C4F08E0032C02D12A4F3F1F03E0022C12
:1021800001D1284F083F2848D0F8B00039464268AE
:1021900030469047FFF78EFB2348001D01F0CEF933
:1021A000224BA3F52E7229462046FFF76FFA032132
:1021B000684607F0DAFF33E72DE9FF4104460D4694
:1021C00016461F46DDF82880ADF80850ADF80A60C5
:1021D000ADF80C70ADF80E80ADF80240002001F0B3
:1021E00026FF70B10020ADF80800ADF80A00ADF888
:1021F0000C00ADF80000ADF80200ADF80400ADF839
:102200000600042302AA40F2FF11094805F068F90C
:1022100004236A4640F2FF11064805F061F9BDE863
:10222000FF8100009C08002088060020000A002092
:1022300000640040006800400020704701207047A3
:1022400070B52DED068B04460D46002001F0EFFE23
:1022500050B19FEDF70A84ED000A9FEDF50A85ED78
:10226000000ABDEC068B70BD9FEDF10A84ED000AFB
:102270009FEDEF0A85ED000AEE48C07A032845D1AC
:10228000EC48807A032841D1EA48B0F9040000EE16
:10229000100AB8EEC00A10EE101A08460CF054FFEF
:1022A00041EC1A0B9FEDE40B53EC102B0CF0BFFE2E
:1022B00041EC190B9FEDE20B53EC102B0CF045FE9B
:1022C00041EC180B0CF06CFF2060DA48B0F9060006
:1022D00000EE100AB8EEC00A10EE101A08460CF014
:1022E00033FF41EC1A0B9FEDD40B53EC102B0CF089
:1022F0009EFE41EC190B9FEDD40B53EC102B0CF010
:1023000024FE41EC180B0CF04BFF286000BFA8E73F
:10231000012070470020704770B52DED088B0546F1
:102320000C46002001F083FE50B19FEDC10A85EDFF
:10233000000A9FEDBF0A84ED000ABDEC088B70BD5A
:102340009FEDBB0A85ED000ABA49B1F906000CF011
:10235000DDFE41EC1B0B9FEDBE0B53EC102B0CF084
:1023600066FE41EC190B94ED000A10EE101A0846B7
:102370000CF0EAFE41EC1A0B53EC192B0CF03EFD6D
:1023800041EC180B0CF00CFF206000BFD5E710B536
:10239000002001F04CFEB8B9022001F048FE98B9C7
:1023A000012001F044FE78B9AB48D0F8B80058B12C
:1023B000A948D0F8B8000078012807D1A648D0F87D
:1023C000BC000078012801DA012010BD032001F0D3
:1023D0002EFE58B9042001F02AFE38B9052001F07C
:1023E00026FE18B9062001F022FE08B10120ECE714
:1023F0000020EAE710B5FFF7CAFF18B99648503039
:10240000FFF70CFC002010BD70B52DED068B0446C7
:102410000D469FED870A84ED000A8649B1F9060052
:102420000CF074FE41EC1A0B9FED830B53EC102B58
:102430000CF0FDFD41EC190B9FED880B53EC102BBC
:102440000CF083FD41EC180B0CF0AAFE2860BDECEB
:10245000068B70BD8048D0F8B8000078012806D1FE
:102460007D48D0F8BC000078012800D170470020DA
:10247000FCE7794890F8B500042805D1002076499A
:1024800081F8B500012070470020FCE770B50446D4
:102490000D46714890F8B50080B9724890ED4E0A2B
:1024A00084ED000A6C4890ED7E0A85ED000A90F8F4
:1024B000B500401C684981F8B5000BE1664890F80A
:1024C000B500012857D1644890ED7E0A85ED000AD9
:1024D00094ED000AF0EE400A9FED632ADFED631AE7
:1024E0009FED631A9FED520A03F0B7FD84ED000AD9
:1024F0005C48D0ED4E0AB0EE600A03F0F0FDF0EE5D
:10250000080AB4EEE00AF1EE10FA09D200205949A7
:10251000088059480088C01C00B25749088008E06C
:1025200054480088C01C00B252490880002052491B
:1025300008805048B0F9000041F28831884207DD38
:102540000020454981F8B5004A4908804A49088079
:102550004948B0F90000B0F5FA7FAEDD3E4890F88A
:10256000B500401C3C4981F8B50000204149088075
:1025700041490880AEE0384890F8B50002287FD184
:102580009FED2B0A84ED000A95ED000AF0EE400A5B
:102590009FED352ADFED351A9FED381A9FED240A9D
:1025A00003F05BFD85ED000A2B48D0ED7E0AB0EE0E
:1025B000600A03F094FDF0EE080AB4EEE00AF1EED2
:1025C00010FA09D200202B4908802B480088C01C33
:1025D00000B22949088008E026480088C01C00B2E3
:1025E000244908800020244908802248B0F90000CE
:1025F00041F28831884207DD0020174981F8B50093
:102600001C4908801C4908801B48B0F90000B0F53F
:10261000FA7F5FDD104890F8B500401C0E4981F844
:10262000B5000020134908801349088052E027E0D4
:1026300000000000A40F00200000000000A0844063
:102640000000000000004E40000000000000444078
:10265000000000000088C340880600200000000041
:1026600000002840000A002000003443000034C36A
:10267000713D8A3EEA000020E80000209A99993EC8
:102680008C4890F8B500032817D11FED170A84ED88
:10269000000A1FED190A85ED000A8648D0F8BC0033
:1026A0000078012804D102208249D1F8BC100870BA
:1026B0000420804981F8B5000CE07E4890F8B50010
:1026C000042807D11FED260A84ED000A1FED280A11
:1026D00085ED000A70BD012070470020704770B57D
:1026E0002DED0A8B04460D4673480068A8BB73495C
:1026F000B1F90C000CF00AFD41EC1B0B9FED700BC7
:1027000053EC102B0CF021FC41EC1A0B9FED6E0BDF
:1027100053EC102B0CF019FC41EC190B0CF040FDA4
:1027200008EE100A6549B1F90E000CF0EFFC41EC1F
:102730001B0B9FED630B53EC102B0CF006FC41ECD4
:102740001A0B9FED610B53EC102B0CF0FEFB41ECD0
:10275000190B0CF025FD08EE900A57480068012877
:1027600035D15649B1F90C000CF0D0FC41EC1B0BF3
:102770009FED570B53EC102B0CF0E7FB41EC1A0BC1
:102780009FED510B53EC102B0CF0DFFB41EC190BC0
:102790000CF006FD08EE100A4849B1F90E000CF0E5
:1027A000B5FC41EC1B0B9FED4A0B53EC102B0CF0CE
:1027B000CCFB41EC190B9FED440B53EC102B0CF0B0
:1027C000C4FB41EC1A0B0CF0EBFC08EE900A3B4901
:1027D000B1F9040003F0D4FC14281EDD3749B1F927
:1027E00004000CF093FC41EC1C0B9FED3B0B53ECF5
:1027F000102B0CF0AAFB41EC1A0B18EE100A0CF08F
:10280000A3FC41EC1B0B53EC1A2B0CF0F7FA41EC38
:10281000190B0CF0C5FC08EE100A2849B1F90600A6
:1028200003F0AEFC142812DD2449B1F906000CF0C7
:102830006DFC41EC1A0B9FED2A0B53EC102B0CF0A6
:1028400084FB41EC190B0CF0ABFC08EE900A1B4822
:10285000808870B91748008958B11848808940B9F4
:102860001448008A28B1204890ED4D0A84ED000AF2
:1028700005E094ED000A30EE080A84ED000A0F48E6
:10288000C08870B90B48408958B10C48C08940B91C
:102890000848408A28B1074890ED7E0A85ED000A75
:1028A00005E095ED000A30EE680A85ED000ABDEC02
:1028B0000A8B70BD880600201C010020A40F002098
:1028C0002D431CEBE2362A3F0000000000002440AC
:1028D0002D431CEBE2360A3FFCA9F1D24D62503F7A
:1028E000FCA9F1D24D62403F000A002070B52DEDE9
:1028F000028B0446B0EE408A0D46D4ED000AB0EEDD
:10290000600A03F0ECFBF0EE080AB4EEE00AF1EE28
:1029100010FA1DDDB0EE480A03F0E1FBF0EE408A4C
:10292000D4ED000AB0EE600A03F0D9FBF0EE080A1D
:1029300080EE201AF4EEC18AF1EE10FA08D2F948BE
:10294000008828B9F8480088401CF74908800BE047
:10295000F5480088002807DDF248008820B9F248D1
:102960000088401EF04908804FF4167090FBF5F087
:10297000ED49098888420BDA0020EB4908804FF4C2
:102980004870E849088094ED000AE84880ED000AA4
:10299000E4480088002811DDB3EE040A84ED000A43
:1029A000E0480088012804D1E04890ED000A84ED59
:1029B000000ADC480088401EDA490880BDEC028B22
:1029C00070BD0246501AB0F5805F03DDA0F5F850E7
:1029D000FF3805E010F5805F02DA41F6FF73184416
:1029E00000EE100AB8EEC00ADFEDD10A20EE200A90
:1029F000704710B52DED028BCE49B1F84E1188B25B
:102A00004FF4E161FFF7DDFFB0EE408AC94991ED77
:102A10007A0ABCEEC00A10EE101A88B24FF4E161D7
:102A2000FFF7CFFFF0EE408AC24890F8F70138BBBD
:102A3000F0EE680AB0EE480ABF4803F07AFDBD48E0
:102A400090ED720A80ED790AD0ED550AB0EE600A79
:102A5000022100F5F270FFF749FFB64890ED791AB0
:102A6000F0EE410A90ED551AB0EE410A00F5AE7055
:102A700003F05FFDAF4890ED610A80ED7B0A3CE01A
:102A8000AC4890F8F70101282DD1AA4890EDA50A8D
:102A9000DFEDAA0A60EE200A90F8F40100EE100AB9
:102AA000B8EE400A80EE801AA24880ED791AD0ED87
:102AB000550AB0EE600A022100F5F270FFF716FF2A
:102AC0009C4890ED791AF0EE410A90ED551AB0EE5F
:102AD000410A00F5AE7003F02CFD964890ED610AB6
:102AE00080ED7B0A09E0934890F8F701022804D1B1
:102AF000904890ED7C0A80ED7B0A9FED910A8E480C
:102B00004C3003F09CFB8B4890ED7B0ABDEEC00A75
:102B100010EE100A01B28748A0F8581190F824006E
:102B2000012811D1834890ED061AF0EE410A90ED8C
:102B3000051AB0EE410A2C3003F0FBFC7D4890ED05
:102B4000150A80ED080A09E07A4890F82400022866
:102B500004D1784890ED070A80ED080A754890F88E
:102B6000C800012811D1734890ED2F1AF0EE410AE8
:102B700090ED2E1AB0EE410AD03003F0DAFC6D4829
:102B800090ED3E0A80ED310A09E06A4890F8C800ED
:102B9000022804D1674890ED300A80ED310A9FED9C
:102BA000690A6448C43003F04AFB9FED660A614835
:102BB000203003F044FB5F4890ED310ABDEEC00ABF
:102BC00010EE100A01B25B48A0F8B41090ED080AAC
:102BD000BDEEC00A10EE100A00B256490882BDECE4
:102BE000028B10BD5848807E30B1012805D00228E4
:102BF00008D0032811D10AE000BF64204D49A1F894
:102C0000A4020AE0C8204B49A1F8A40205E04FF451
:102C100096704849A1F8A40200BF00BF4A48018A43
:102C20004448A0F8A612B0F9A412B0F9A602081AF6
:102C3000642809DA3F48B0F94E0100EE100AB8EEF8
:102C4000C00A3C4880ED7A0A704710B52DED048B20
:102C50003848D0ED030AB0EE600A743003F053F93F
:102C6000344880ED1C0AD0ED2C0AB0EE600A00F565
:102C70008C7003F048F92F4880ED450A90ED1C0A4E
:102C800010EE101A08460CF05FFA41EC190B9FED9C
:102C90002F0B53EC102B0CF058F941EC180B0CF0E7
:102CA0007FFA24494861084690ED450A10EE101A53
:102CB00008460CF049FA41EC190B9FED240B53EC3C
:102CC000102B0CF042F941EC180B0CF069FA194981
:102CD000C1F8B800BDEC048B10BD164890F8F701A0
:102CE0001C49097888424CD0124890F8F70150B935
:102CF0001048B0F94E0100EE100AB8EEC00A0D48B7
:102D000080ED7A0A34E00B4890F8F701012825D1CC
:102D10009FED110A074880EDA50A9FED0F0A80ED8F
:102D2000790A25E012010020100100201401002082
:102D3000A105343DEC0C00208C0E002000007042F8
:102D400000401C460000804640130020295C8FC2D2
:102D500065BC693F1801002000000000E44890F8BD
:102D6000F701022804D11FED040AE14880ED7C0A36
:102D70000020DF49A1F89C02084690F8F701DD49E0
:102D8000087070471FED0C0AD94880EDA50A1FEDA9
:102D90000E0A80ED790AB0F94E0100EE100AB8EE85
:102DA000C00AD34880ED7A0A1FED150A80ED7C0A2F
:102DB0000020CF49A1F89C02704710B50446CC48CA
:102DC000D0F88C0248B1CA48D0F88C02406920B1D2
:102DD000C749D1F88C1248698047C548C0F88C4271
:102DE000A17880F8F7112078C14981F82400617832
:102DF000BF4880F8C8100020BD49A1F89C02FFF729
:102E0000C1FF206908B12069804710BD10B5BA4CD8
:102E100009E0A06830B1A068804718B12046FFF7EC
:102E2000CCFF10BD1834B248D0F88C02A042F0D8C4
:102E3000AF48D0F88C02C068E0B1AD49D1F88C122F
:102E4000C8688047B0B1AA48D0F88C0200F11804D5
:102E500009E0A06830B1A068804718B12046FFF7AC
:102E6000ACFFDEE71834A44878308442F1D36038F0
:102E7000FFF7A3FF00BFD4E72DE9F04107AC94E8CA
:102E80007010DDF82C80069F0DB106B10CB9BDE8BD
:102E9000F08144608560C0F810C00170427083709A
:102EA000C770C660C0F8148000BFF0E710B50021FD
:102EB0009FED924AFFEE003A9FED913ADFED912AA5
:102EC0001FED612A5FED5C1A1FED5D1ADFED8E0AC2
:102ED0009FED8E0A8848B83803F0C6FA0221BFEE8B
:102EE000004ADFED8B3ABFEE003A5FED652ABFEE98
:102EF000002A5FED671A1FED681A5FED690AB1EEEF
:102F0000040A7D48743803F0AFFA00219FED814A2E
:102F1000F3EE0D3AB2EE0E3A5FED712A9FED7E2A86
:102F20005FED731A9FED7D1AF1EE040A9FED7C0AA6
:102F30006F482C3003F098FA00219FED764AF3EEAB
:102F40000D3AB2EE0E3A5FED7C2A9FED732A5FEDEB
:102F50007E1A9FED721AF1EE040A9FED720A644820
:102F6000D03003F081FA10BD00B587B0FFF70AFF3B
:102F700000F0AEF95E49C1F8F80101215C4805F0A6
:102F800061FB01215A48A43005F05CFB13215A482B
:102F9000CC3805F057FBF1EE040AB7EE000A5448AE
:102FA000743002F093FFF1EE040AB7EE000A5248C3
:102FB000FC3802F08BFF06214D4880F8F411012106
:102FC00080F8F51180F8F611B3EE0E0A80ED330AA1
:102FD000B3EE0E0A80ED0A0AFFF768FF7D21524822
:102FE0000AF0ADFE03F0E1FC03F0D9FC00204F4AEB
:102FF0004F4BCDE90320029305904E480021012359
:103000001A46CDE9001019463B48FFF735FF00206E
:10301000494A4A4BCDE903200293059048480121D3
:1030200002231A46CDE90010194633481830FFF73D
:1030300023FF31481830FFF7C0FE07B000BD1CB5B4
:10304000FFF792FF4FF47A7007F0F3F807F020FCD7
:1030500001904CE0264890ED050A3A4880ED000AC0
:10306000234890ED2E0A384880ED000A204890ED64
:10307000550A364880ED000AFFF7C8FEFFF72DFE1F
:10308000FFF7E3FD1C48803031490860A0F51F7050
:1030900030490860A43030490860BC38D0F88C0250
:1030A00043682B480268084601682A480068984728
:1030B0001148183800F042FAFFF794FDFFF799FC29
:1030C0000B48B0F9B4000A4C0090B4F91030B4F9D0
:1030D0005821224CB4F88843644221B21F4CB4F901
:1030E000D000FFF769F8022101A807F03EF8B1E728
:1030F000EC0C002018010020000F002000409C452F
:10310000E438AC421CC7B13F9A99993F0000024392
:103110000000B4430000FA4400007A4600007A45FB
:103120000080BB440000E144000401406531000818
:1031300061310008693100086F320008453200082B
:103140007F320008F0000020F4000020F80000208A
:1031500004010020FC00002000010020880600205F
:10316000012070470020704770B52DED068B044696
:103170000D4616464B48C07A012848D14948807A06
:10318000012844D195ED000AF0EE400A9FED461A61
:10319000B9EE0C0A02F02EFF85ED000A94ED000A4C
:1031A000F0EE400A9FED401AB1EE0C0A02F022FF49
:1031B00084ED000A3B48B0F9060000EE100AB8EEB4
:1031C000C00A10EE101A08460BF0BEFF41EC1A0BB5
:1031D0009FED360B53EC102B0BF029FF41EC190B34
:1031E0009FED340B53EC102B0BF0AFFE41EC180BA2
:1031F0000BF0D6FF30602B48B0F90200B0F5FA7F33
:1032000002DD03F0C6FB1AE003F0C9FB17E095ED01
:10321000000AF0EE400A9FED241A9FED280A02F002
:10322000E9FE85ED000A94ED000AF0EE400A9FEDFC
:103230001E1A9FED220A02F0DDFE84ED000ABDECAD
:10324000068B70BD10B5002000F0F1FE58B90820C3
:1032500000F0EDFE38B9092000F0E9FE18B90A20A7
:1032600000F0E5FE08B1012010BD0020FCE710B51C
:10327000FFF7E8FF08B1002010BD0120FCE770B5A2
:1032800006460C4615469FED0D0A86ED000A9FED99
:103290000B0A84ED000A9FED090A85ED000A03F090
:1032A0007EFB70BDA40F0020BC74133D0000000025
:1032B00000A0844000000000000044400000000026
:1032C00010B52422AF49A1F1240003F007FD10BD81
:1032D000AD4870470146002901DD08467047484265
:1032E00000B2FBE710B5A849B1F90000FFF7F2FF03
:1032F000B0F52F7F00DD24E0A349B1F90200FFF70C
:10330000E9FFB0F52F7F00DD1BE09F49B1F9040014
:10331000FFF7E0FFB0F52F7F00DD12E09A49B1F929
:103320000600FFF7D7FFB0F52F7F00DD09E09648D4
:10333000807A00B905E09448C07A00B901E0002025
:1033400010BD00209049088048808880C88008818E
:103350000220887202218C48C17200208A4988812B
:1033600000218948C18101828174C174002086498D
:1033700088820120E4E710B5242003F051FD10BD40
:1033800010B5242003F04CFD10BD00B101B9704709
:103390000278437842EA0322C2F30A020A804278A2
:1033A000D210837842EA4312C2F30A024A8082783A
:1033B0009211C37842EA8302037942EA8322C2F37C
:1033C0000A028A8002795210437942EAC312C2F398
:1033D0000A02CA804279C2F30113CB7242791211F8
:1033E00092088A728279C37942EA032212B28A81F0
:1033F000027A437A42EA032213B201F10C02CB8132
:10340000827AC37A42EA032213B201F10C020B82E0
:10341000037B8B74437BCB74827BC37B42EA0322A6
:103420008A82027C437C42EA032212B20A810A8821
:10343000A2F5806212B20A804A88A2F5806212B2B6
:103440004A808A88A2F5806212B28A80CA88A2F570
:10345000806212B2CA800A89A2F5806212B20A8121
:1034600000BF94E710B540F22551484809F0B0FA82
:1034700018B1464809F0EAF95FE040F224414348B8
:1034800009F0A6FA002858D0404809F0DFF9404872
:103490000AF0FFF848BB00213D480AF0B7F83C4865
:1034A0000AF0D7F8C0F124003A49088024213848AE
:1034B0000AF0CDF83648006840F40020344908602E
:1034C000354933480AF01BF9012131480AF09EF8CA
:1034D00030480088122830D12B492A482438FFF779
:1034E00054FF002000F0ADFD27E0002128480AF03D
:1034F0008DF827480AF0ADF8C0F12400254908806E
:10350000242123480AF0A3F82148006820F4002071
:103510001F49086020491E480AF0F1F801211C48A3
:103520000AF074F81B480088122806D1164915487D
:10353000FFF72BFF002000F084FD10BD00B970479D
:103540001149098801801049498841800E498988BC
:1035500081800D49C988C1800B49897A81720A49E5
:10356000CA7AC272898981810749CA8900F10C012E
:10357000C28105498A7C8274CA7CC274898A81822C
:1035800000BFDCE7DE0F0020A40F00200010014088
:10359000406402402001002000003010F0B505AC6E
:1035A00094E8F010F0BD70B586B006460D460024D4
:1035B0000A2D00DD0A2500240DE016F8140001AAEA
:1035C00002F8140036F81400C0F307216000401C14
:1035D0001154601CC4B2AC42EFDB6806010E01223C
:1035E00001A804F04BFB06B070BD04F09BF9642009
:1035F00006F01FFE61E0314890ED2F0ABDEEC00AD3
:1036000010EE100A00B22E4908802C4890ED550AA1
:10361000BDEEC00A10EE100A00B24880274890EDB7
:103620007B0ABDEEC00A10EE100A00B28880234863
:1036300090EDA10ABDEEC00A10EE100A00B2C880DB
:103640001E4890ED3C0ABDEEC00A10EE100A00B212
:1036500008811A4890ED620ABDEEC00A10EE100A09
:1036600000B24881154890ED880ABDEEC00A10EE00
:10367000100A00B28881114890EDAE0ABDEEC00A72
:1036800010EE100A00B2C8810E4890ED4F0ABDEE50
:10369000C00A10EE100A00B208820A4890ED4D0AE6
:1036A000BDEEC00A10EE100A00B248820A2104489A
:1036B000FFF779FF052006F0BCFD9CE7DC02002047
:1036C00002100020000A002010B586B0044603E076
:1036D00001A9494809F058FB00231A4601A94748A7
:1036E000006805F034FE0028F2D106B010BD10B518
:1036F00086B0044603E001A9414809F045FB0023D8
:103700001A4601A93F48006805F021FE0028F2D1C1
:1037100006B010BD10B50446002102209FED3A0A04
:1037200004F015FD10BD38B505F070FA0022142123
:10373000802005F0B7FB3149086000221421802069
:1037400005F0B0FB2F49086000220C21802005F015
:10375000A9FB2E490860AFF28F0000230122114619
:1037600000902BA008F077F92C4908600846006803
:1037700058B107F08DF80446002003462246012187
:1037800000902648006807F049FFAFF29D00012332
:103790001A461946009022A008F05DF923490860F6
:1037A0000846006858B107F073F804460020034645
:1037B0002246012100901D48006807F02FFFAFF25C
:1037C000AB0001231A460A21009019A008F043F922
:1037D0001B4908600846006858B107F059F80446CC
:1037E000002003462246012100901548006807F09A
:1037F00015FF05F032FA38BD0064004030010020AA
:10380000006800403401002000A00C463801002070
:1038100043414E315F54696D657200002401002000
:1038200043414E325F54696D6572000028010020EB
:10383000564953494F4E5F54696D65720000000050
:103840002C0100202DED0C8B84B007F021F80390A3
:10385000642006F0EEFC5CE1AE49AF4802F029FBC3
:10386000AE4801F050F8AB49AC4801F0A7F8AB48BE
:10387000007800F04000402813D1A948007880B9B2
:103880000020A849088000BF08E09FEDA70AA749CB
:1038900001EB800181ED000A411CC8B20328F4DB72
:1038A00024E09F48007808BB9E480088401D9D4941
:1038B000088008460088B0F57A7F17DB002013E007
:1038C0009A4901EB800191ED000A9449243101EB02
:1038D0008001D1ED000A30EE200A944901EB80010D
:1038E00081ED000A411CC8B20328E9DB8C4800784E
:1038F000F0BB8C48008840F6B831884243DB012099
:103900008749087000243CE0864800880BF00FFCD3
:1039100041EC1D0B9FED860B53EC102B0BF087FB3E
:1039200041EC1B0B814800EB840090ED000A10EE87
:10393000101A08460BF008FC41EC1C0B53EC1B2B37
:103940000BF075FB41EC190B7448483000EB840018
:1039500090ED000A10EE101A08460BF0F5FB41EC52
:103960001A0B53EC192B0BF0EAFA41EC180B00E0A0
:1039700009E00BF015FC6949483141F82400601C4E
:10398000C4B2032CC0DB6C48007870BB01206A49CC
:103990000870604A1832A2F10C0168480BF0A4FDCF
:1039A0005C4890ED030A664880ED000A654880EDAA
:1039B000000A654880ED000A564890ED040A604808
:1039C00080ED010A5F4880ED010A5F4880ED010A41
:1039D000504890ED050A5A4880ED020A594880ED9A
:1039E000020A594880ED020A79E0FFE7554890ED58
:1039F000000A554880ED000A514890ED000A5148F0
:103A000080ED000A90ED000A5048D0ED000A20EE4B
:103A1000200A4D48D0ED000A4C4890ED011A00EE06
:103A2000810A3C48D0ED030A484890ED021A00EEA6
:103A3000810A434880ED000A424890ED010A42485D
:103A400080ED010A3E4890ED010A3E4880ED010AF2
:103A500090ED010A3D48D0ED000A20EE200A3A48D8
:103A6000D0ED010A394890ED011A00EE810A29488B
:103A7000D0ED040A354890ED021A00EE810A304874
:103A800080ED010A2F4890ED020A2F4880ED020ACE
:103A90002B4890ED020A2B4880ED020A90ED020AB5
:103AA0002A48D0ED000A20EE200A2748D0ED020A6D
:103AB000264890ED011A00EE810A1648D0ED050A5D
:103AC000224890ED021A00EE810A1D4880ED020A9C
:103AD000024610499FED1E0A184801F0E0FB6B46B4
:103AE00001AA02A9154801F083FD1A48407858B987
:103AF00019480088401D184908804FF47A7017490A
:103B00000880012013494870052103A806F02DFB09
:103B100000BFA1E6CC1000208C130020681000200C
:103B20003C0100203E010020000000003C1100206C
:103B30000000000000001440400100202C11002073
:103B40005C10002050100020441000209C17010839
:103B50000AD7A33B000000204201002044010020BE
:103B600010B504460E2C05D102F056FE0E20FE497B
:103B7000087037E0FC480078A04201D0FA48047091
:103B8000FA48007878B9FA480078401CF84908707B
:103B900008460078322805DD00200870F2480078D9
:103BA000F249087010BDF348007880B902F086FE33
:103BB000F148007840B10020EF490870EB480078E8
:103BC000401EEA49087002E00120EB490870E9480C
:103BD0000078401CE749087008460078142801DD89
:103BE0000020087000BFDDE710B594B004465022F5
:103BF000E24968460BF0CEF800209EE000EB400161
:103C00003DF8112000EBC001DD4B03EB8101098A77
:103C100062F30B0100EBC00203EB8202118200EBA6
:103C200040016A4602EB41014A8800EBC00103EB08
:103C30008101B1F8111062F30F1100EBC00203EB28
:103C40008202A2F8111000EB40016A4602EB41012A
:103C5000097900EBC00203EB8202D27C61F34402DB
:103C600000EBC00103EB8101CA74002100EBC0022C
:103C700003EB8202916100EBC00203EB8202D1618F
:103C800000EBC00203EB8202116200EBC0011A4696
:103C900002EB8101C97C21F00101491C00EBC0024B
:103CA00003EB8202D17400EBC0011A4602EB8101E2
:103CB000C97C21F02001203100EBC00203EB82021D
:103CC000D17400EBC0011A4602EB8101C97C21F0DE
:103CD0004001403100EBC00203EB8202D17400EBE3
:103CE000C0011A4602EB8101C97C21F080018031BC
:103CF00000EBC00203EB8202D1749FEDA20A10EE2A
:103D0000101A00EBC00203EB8202516100EBC0010C
:103D10001A4602EB81010C6000EBC00102EB81014D
:103D20004C6000EBC00102EB81018C6000EBC00134
:103D300002EB8101CC60411CC8B20D28FFF65EAFDA
:103D400091488F4988619148C8619148086214B0D0
:103D500010BD06F09DFD8F49086008460068FFF71A
:103D600043FF392006F065FA60E106F091FD8949CC
:103D700008600D2088490870814890F8E70120F01C
:103D800040017F4880F8E71190F8E70120F020011A
:103D90007B4880F8E711002437E104EBC400784940
:103DA00001EB8000C07C00F0010000B92CE104EBC5
:103DB000C400734901EB8000006876490968081A5D
:103DC00004EBC4016E4A02EB8101098AC1F30B01C5
:103DD000884260D904EBC400114601EB8000C07C2E
:103DE000C0F3401008BB04EBC40001EB8000C07CB2
:103DF00020F04000403004EBC40102EB8101C874A4
:103E000004EBC400114601EB8000C07C20F02000D0
:103E1000203004EBC40102EB8101C8745D480068E6
:103E200004EBC40102EB8101886004EBC400544937
:103E300001EB8000C07CC0F343005749097801EBD7
:103E4000C1014F4A02EB8101C97CC1F343018842A1
:103E500001DD51490C704A4890F8E70120F040001C
:103E60004030474981F8E701084690F8E70120F023
:103E70002000203081F8E70104EBC40001EB800052
:103E8000C069002806D004EBC4013D4A02EB810161
:103E9000C8698047A5E004EBC400394901EB800004
:103EA000C0683C490968081A04EBC401344A02EBB3
:103EB0008101B1F81110B0EB111F1BD204EBC4004B
:103EC000114601EB8000C07C20F0400004EBC401EF
:103ED00002EB8101C87404EBC400114601EB8000C1
:103EE000C07C20F02000203004EBC40102EB8101F3
:103EF000C87476E004EBC400214901EB8000C07C6B
:103F000020F0400004EBC4011D4A02EB8101C8749B
:103F100004EBC400114601EB8000C07CC00968B10D
:103F200004EBC40001EB8000C07C20F020002030B6
:103F300004EBC40102EB8101C8740DE004EBC40082
:103F40000F4901EB8000C07C20F0200004EBC4018D
:103F50000B4A02EB8101C87404EBC400084901EB71
:103F6000800000681AE00000510100205401002088
:103F7000550100205201002053010020A81701081C
:103F80004811002000000000E532000877330008E7
:103F9000813300084C0100205001002004EBC401D3
:103FA000714A02EB8101496888421AD904EBC400C6
:103FB000114601EB8000006804EBC40102EB8101B3
:103FC0004968401A00EE100AF8EE400A9FED671AA1
:103FD00081EE200A10EE100A04EBC40102EB81010D
:103FE000486104EBC400604901EB8000C07CC0F371
:103FF000401028B1082C03DAA0B202F066FC02E0FF
:10400000A0B202F0FFFB00BF641C0D2CFFF6C5AE92
:1040100057490978491CC8B2FFF7A2FD0A2006F0EB
:1040200008F9002006F023FF524908609DE601468A
:1040300001EBC1004C4A02EB8000C07CC0F3401091
:10404000704710B5044604EBC400474901EB8000FB
:10405000006804EBC401444A02EB8101486006F0A9
:1040600017FC04EBC401404A02EB8101086004EB39
:10407000C400114601EB8000C07CC0F38010B0B1D9
:1040800004EBC40001EB8000C07C20F0400004EB96
:10409000C40102EB8101C87404EBC400114601EBBA
:1040A0008000006804EBC40102EB8101C86004EBEE
:1040B000C4002D4901EB8000806990B304EBC4017A
:1040C000294A02EB81018869804758B304EBC40098
:1040D000254901EB8000C07C20F02000203004EB5B
:1040E000C401214A02EB8101C87404EBC4001146EB
:1040F00001EB8000C07C20F08000803004EBC40124
:1041000002EB8101C87404EBC400114601EB80008E
:10411000006A28B304EBC40102EB8101086A8047FE
:104120001EE00FE0FFE704EBC4000F4901EB800045
:10413000C07C20F0800004EBC4010B4A02EB81013B
:10414000C8740DE004EBC400074901EB8000C07C9B
:1041500020F0800004EBC401034A02EB8101C87423
:1041600010BD0148704700004811002000007A444B
:10417000500100204801002003E04FF4FA7006F0DF
:1041800058F8FAE707E04FF4FA7006F052F84FF4E7
:10419000FA7006F04EF8F6E71CB5044604F036FD5A
:1041A0003A48152100234FF40072CDE9001038A1E0
:1041B0003A4805F0C0FD3A48132100234FF400723D
:1041C000CDE9001037A13A4805F0B5FD3948122174
:1041D00000234FF40072CDE9001037A1394805F0F3
:1041E000AAFD3948142100234FF40072CDE90010D4
:1041F00036A1394805F09FFD38480A2100234FF4C5
:104200008072CDE9001036A1384805F094FD384899
:10421000052100234FF48072CDE9001035A13A4802
:1042200005F089FD3948042100238022CDE90010E2
:1042300037A13A4805F07FFD14480421002380226D
:10424000CDE9001036A1394805F075FD3848032145
:1042500000234FF48072CDE9001036A13A4805F0F2
:104260006AFD3A48006805F0B4FD04F0F6FC1CBD98
:104270001CB53648012100234A02CDE9001034A1C3
:10428000AFF2EB0005F057FD1CBD000060010020FF
:10429000494E535F7461736B00000000453800089D
:1042A0006801002067696D62616C5461736B000086
:1042B0000D2000086C0100206368617373697354FA
:1042C00061736B006F0C00087001002073686F6FE2
:1042D000745461736B0000003F30000874010020CB
:1042E0004465746563745461736B0000533D00084A
:1042F000780100206F7363696C6C6F67726170681E
:10430000795F7461736B0000EB3500085C0100207D
:104310006C65645F7461736B000000007941000894
:1043200062757A7A65725F7461736B00854100080B
:104330007C010020626F617264425F6C696E6B5F2A
:104340005461736B00000000BD4400085801002058
:1043500073746172745F7461736B0000704710B5A1
:1043600006F099FD012801D004F093FC10BD002156
:104370000B4A11605160704710B50121094809F0DE
:10438000A2FF60B10121074809F09AFF04480268C2
:104390004068521C40F1000001490A60486010BDAD
:1043A00080010020000400400021E54881733C2189
:1043B00081817047704730B585B004460D4640F2A4
:1043C0000450009000208DF808008DF809000220AC
:1043D0008DF80A008DF80B408DF80C506946D948CD
:1043E00008F0D2FC05B030BD00B52DED028B87B0D2
:1043F000B0EE408A40F20250029000208DF810008A
:104400008DF8110004208DF812008DED018A9DF8C1
:1044100004008DF813009DF805108DF814109DF818
:1044200006108DF815109DF807108DF8161002A9CA
:10443000C44808F0A9FC07B0BDEC028B00BD00B574
:104440002DED028B87B0F0EE408AB0EE608A40F22C
:104450000150029000208DF810008DF81100082006
:104460008DF81200CDED018A9DF804008DF813003F
:104470009DF805108DF814109DF806108DF8151094
:104480009DF807108DF816108DED018A9DF8041027
:104490008DF817109DF805108DF818109DF806106E
:1044A0008DF819109DF807108DF81A1002A9A5486B
:1044B00008F06AFC07B0BDEC028B00BD08B50A200D
:1044C00005F0B7FE06F0E4F9009057E09E4890F83A
:1044D000C002012806D103F0D8F800209A4981F8DB
:1044E000C00206E0002003F0D0F80020964981F8D1
:1044F000C002964890ED7E1AF0EE410A00F55E701B
:1045000090ED4E1AB0EE410AFFF799FF8E48D0F8B1
:10451000BC02D0ED000AF5EEC00AF1EE10FA09D2A5
:104520008948D0F8BC02D0ED000A9FED891A70EEE0
:10453000810A04E08448D0F8BC02D0ED000AB0EE55
:10454000600AFFF751FF814890F8B400052806D1B2
:10455000804890F89F120120FFF72DFF0AE07B486A
:1045600090F8B400032805D17A4890F89F120220F1
:10457000FFF721FF0521684605F0F7FDA6E7C27A9F
:104580006F4981F820207047027B6D498A76427B13
:10459000817B42EA01210AB269498A83817C01F068
:1045A000020267498A77817C01F004026449CA7774
:1045B0007047027B417B42EA012100EE901AF8EE3F
:1045C000E00AB0EE600AC17A49B25D4A1171F2EEBA
:1045D000040A80EE201A114681ED021A827BC17B0B
:1045E00042EA012256498A817047C27A017B42EA37
:1045F00001210AB252490A82427B817B42EA0121AF
:104600000AB24F494A82C27B017C42EA01210AB2C6
:104610004B498A827047C17A4AB2494981F82120C0
:104620007047C17A4AB246498A75017B4AB2444909
:10463000CA75427B817B42EA01210AB240490A8362
:104640007047C17AC1F383023D4981F82020C17AC5
:1046500001F003023A498A76027B417B42EA01215A
:104660000AB237498A837047C27A017B42EA012144
:1046700000EE101AB8EEC00A314981ED020A427B01
:10468000817B42EA01222E498A817047027B417B6D
:1046900042EA01210AB22A490A83827BC17B42EAAB
:1046A00001210AB226490A82027C417C42EA0121A8
:1046B0004AB22349CA75704700B585B040F203502D
:1046C000009000208DF808008DF8090001208DF879
:1046D0000A008DF80B0069461A4808F055FB05B032
:1046E00000BD30B585B004460D4640F2055000903F
:1046F00000208DF808008DF8090002208DF80A00CE
:104700008DF80B408DF80C5069460E4808F03CFBC4
:1047100005B030BD10B586B0044640F20650019099
:1047200000208DF80C008DF80D0002208DF80E0091
:104730008DF80F4001A9034808F026FB06B010BD14
:104740004013002000640040DC02002088060020A6
:104750000000B443EC0C002010B54FF4407007F09B
:1047600023FA02F0B1F902F0C4F802F063F803F0A2
:1047700029FD00F049F800F085F803F0B1FF02F0E0
:104780009FFF02F06EFA40F2077140F2CF7002F024
:104790002DF97D21164809F0D2FA2D21144809F08F
:1047A000CCFA02F02CFAFEF78BFD012141F28830A1
:1047B00002F0F5FB02F0DCFC03F052FF052142F2AF
:1047C000283002F08FFC02F048FD03F0DFFA10BD44
:1047D000FFF7C2FF642002F0D2F9FBF74FFDFEF7AE
:1047E000A2FFFFF745FD05F0E3FF00BFFEE7000075
:1047F00000040140704700BFFEE700BFFEE700BFB6
:10480000FEE700BFFEE7704710B580216B2003F084
:1048100071FD4FF4967002F0D8F9752003F080FD19
:10482000702801D0FF2010BD322002F0CEF9002404
:1048300024E004EB4402F74B1A44517804EB4402A1
:10484000985C03F057FD322002F0BFF904EB4401FD
:10485000F04A505C03F064FD04EB4401ED4A11445E
:104860004978884205D004EB44001146084480781A
:10487000D9E7322002F0A9F9601CC4B20E2CD8DBB3
:104880000020D0E770B500220421E34807F002FBC6
:10489000642002F09AF901220421DF4807F0FAFAB5
:1048A000642002F092F9002424E004EB4402DB4B84
:1048B0001A44517804EB4402985C03F08CFD02200A
:1048C00002F083F904EB4401D44A505C03F094FDF8
:1048D0000546022002F079F904EB4400CF49084470
:1048E0004078A84204D004EB44000844807870BDAE
:1048F000601CC4B2042CD8DB03F063FD642002F01A
:1049000064F90020F3E710B504461722C4493A20A1
:1049100003F03AFDC24800782080C1488078C04941
:10492000497840EA012000B26080BD480079BC4966
:10493000C97840EA012000B2A080B9488079B8491E
:10494000497940EA012000B2E080B548807AB44954
:10495000497A40EA012000B22081B148007BB04989
:10496000C97A40EA012000B26081AD48807BAC4941
:10497000497B40EA012000B2A081A948007CA849F7
:10498000497C40EA012000B2E081A548807CA4492E
:10499000C97C40EA012000B22082A148007DA049E4
:1049A000497D40EA012000B260829D48007A9C491E
:1049B000C97940EA012000B2A08210BD10B50A46B4
:1049C000B0F9021000EE101AB8EEC00ADFED950A39
:1049D00020EE200A80ED060AB0F9041000EE101A4D
:1049E000B8EEC00ADFED8F0A20EE200A80ED070A3C
:1049F000B0F9061000EE101AB8EEC00ADFED890A11
:104A000020EE200A80ED080AB0F9081000EE101A16
:104A1000B8EEC00ADFED840A20EE200A80ED090A14
:104A2000B0F90A1000EE101AB8EEC00ADFED7E0AE7
:104A300020EE200A80ED0A0AB0F90C1000EE101AE0
:104A4000B8EEC00ADFED780A20EE200A80ED0B0AEE
:104A5000B0F90E1000EE101AB8EEC00ADFED730ABE
:104A600020EE200A80ED0C0AB0F9101000EE101AAA
:104A7000B8EEC00ADFED6D0A20EE200A80ED0D0AC7
:104A8000B0F9121000EE101AB8EEC00ADFED670A96
:104A900020EE200A80ED0E0AB0F9141000EE101A74
:104AA000F8EEC00A9FED621A80EE810AF3EE050A65
:104AB00030EE200ABDEEC00A10EE101A09B2818253
:104AC000002186E090ED090A01EB4103594C04EB0B
:104AD0008303D3ED000A20EE200AD0ED0A0A01EB91
:104AE000410304EB830393ED011A00EE810AD0ED3C
:104AF0000B0A01EB410304EB830393ED021A00EE72
:104B0000810A00F1480303EB8103D3ED000A30EE84
:104B1000200A02EB810383ED000A90ED060A01EB07
:104B20004103454C04EB8303D3ED000A20EE200A39
:104B3000D0ED070A01EB410304EB830393ED011A67
:104B400000EE810AD0ED080A01EB410304EB830378
:104B500093ED021A00EE810A00F13C0303EB81039E
:104B6000D3ED000A30EE200A02F10C0303EB8103BF
:104B700083ED000A90ED0C0A01EB41032F4C04EB8E
:104B80008303D3ED000A20EE200AD0ED0D0A01EBDD
:104B9000410304EB830393ED011A00EE810AD0ED8B
:104BA0000E0A01EB410304EB830393ED021A00EEBE
:104BB000810A00F1540303EB8103D3ED000A30EEC8
:104BC000200A02F1180303EB810383ED000A4B1C5A
:104BD000D9B20329FFF676AF10BDF0EE400AF6EE2B
:104BE000001A60EEA11AB0EE611AB0EE600A10EE83
:104BF000100A1349A1EB600000EE100A21EE002A12
:104C0000F7EE081A42EE401A61EE801AB0EE610A21
:104C100070470000F7170108001002402218010831
:104C200064130020CDCC9C3A58A00B3A9A99993E37
:104C30005CEFA64388010020AC010020D0010020D9
:104C4000DF59375FF0B52DED108BA1B00446F0EEC3
:104C500040AA0D4616461F469FEDFE0AB0EE40FAEA
:104C6000B0EE000A8DED0A0A94ED000AF0EE408ADB
:104C700094ED010AB0EE409A94ED020AF0EE409AEB
:104C800094ED030AB0EE40AA28EEA80A8DED090AB9
:104C900028EE890AF0EE40FA28EEA90AF0EE40BAB2
:104CA00028EE8A0A8DED080A29EE090A8DED070A19
:104CB00029EE290A8DED060A29EE0A0AB0EE40CA4D
:104CC00029EEA90AF0EE40CA29EE8A0A8DED050AFE
:104CD0002AEE0A0A8DED040A95ED000A8DED1F0AF1
:104CE00095ED010A8DED1E0A95ED020A8DED1D0A66
:104CF00096ED000A8DED1C0A96ED010A8DED1B0A5A
:104D000096ED020A8DED1A0A97ED000A8DED190A4B
:104D100097ED010A8DED180A97ED020A8DED170A3D
:104D20009DED1C0AB5EEC00AF1EE10FA0DD19DED15
:104D30001B0AB5EEC00AF1EE10FA06D19DED1A0A73
:104D4000B5EEC00AF1EE10FA2FD0DDED1C0A9DED94
:104D50001C1A60EE810A9DED1B1ADDED1B1A41EE57
:104D6000210A9DED1A1ADDED1A1A41EE210AB0EE64
:104D7000600AFFF732FFB0EE408ADDED1C0AB0EEAC
:104D8000480A20EE800A8DED1C0ADDED1B0AB0EE0C
:104D9000480A20EE800A8DED1B0ADDED1A0AB0EEFE
:104DA000480A20EE800A8DED1A0A9DED190AB5EE2B
:104DB000C00AF1EE10FA0DD19DED180AB5EEC00A49
:104DC000F1EE10FA06D19DED170AB5EEC00AF1EE2C
:104DD00010FA29D0DDED190A9DED191A60EE810A4D
:104DE0009DED181ADDED181A41EE210A9DED171AF6
:104DF000DDED171A41EE210AB0EE600AFFF7EDFE75
:104E0000B0EE408A9DED190A20EE080A8DED190AD0
:104E10009DED180A20EE080A8DED180A9DED170A7F
:104E200020EE080A8DED170A9DED190AF0EE000A32
:104E300060EE200AB6EE000A30EE6C1A9DED040A10
:104E400031EE400A20EE800ADDED180AB0EE001ABD
:104E500060EE811ADDED060A9DED081A70EEC10ABA
:104E600001EEA00ADDED170AB0EE001A60EE810A2D
:104E70003CEE2B1A00EE810A8DED160A9DED190A03
:104E8000F0EE000A20EE201A9DED060ADDED080A7C
:104E900030EE200A21EE000ADDED180AB0EE001A0D
:104EA00020EE811ADDED070AF6EE001A71EEE01A27
:104EB000DDED040A71EEE00A01EE200ADDED170ACD
:104EC000B0EE001A20EE811ADDED050A70EEEF0A51
:104ED00001EE200A8DED150A9DED160A60EE000A1E
:104EE0009DED150A40EE000A10EE901A08460AF0F1
:104EF0002BF9CDE900019DED000B0BF0E5FB8DEDED
:104F0000020B9DED020B51EC100B0AF049F90BEE70
:104F1000100A9DED190AF0EE000A20EE200A7CEE40
:104F20006B0A20EE200ADDED180AB0EE001A20EE22
:104F3000811ADDED050A70EEAF0A01EE200ADDED03
:104F4000170AB0EE001A20EE811ADDED070AF6EE20
:104F5000001A71EEE00A70EEEC0AB0EE40DA01EEF3
:104F600020DA3CEE6B0AF0EE000A20EE200A8DED0E
:104F7000140A9DED050A3FEE800AF0EE000A20EECD
:104F8000200A8DED130A9DED090ADDED070A30EECA
:104F9000600A70EE6C0A9DED040A30EE800A8DED19
:104FA000120AB0EE000A6BEE000AB6EE000A30EE0E
:104FB0006C1A9DED040A31EE400A20EE800AF0EEF4
:104FC000000A6DEE200A3CEE6B1A00EE810A8DEDB0
:104FD000110AB0EE000A2BEE001A9DED060ADDED77
:104FE000080A30EE600A21EE000AF0EE000A2DEE0B
:104FF000201ADDED050A7FEEA00A01EE200A8DEDF4
:10500000100AB0EE000A2BEE000A7BEE8C0A20EEAE
:10501000200AF0EE000A2DEE201ADDED070AF6EE6A
:10502000001A71EEE00A70EEEC0A01EE200A8DED36
:105030000F0ADDED1B0A9DED120A60EE800A9DED60
:105040001A1A9DED130A41EE400A9DED181A9DEDC6
:105050000F0A01E00AD7233C21EE001ADDED171AF2
:105060009DED100A01EEC01A30EE810A8DED0E0A98
:10507000DDED1A0A9DED140A60EE800A9DED1C1A02
:105080009DED120A41EE400A9DED171A9DED110AA1
:1050900021EE001ADDED191A9DED0F0A01EEC01A7E
:1050A00030EE810A8DED0D0ADDED1C0A9DED130A2F
:1050B00060EE800A9DED1B1A9DED140A41EE400A38
:1050C0009DED191A9DED100A21EE001ADDED181A5A
:1050D0009DED110A01EEC01A30EE810A8DED0C0A29
:1050E000B5EEC0FAF1EE10FA1BDDFE48D0ED000A75
:1050F0009DED0E0A30EE800A80ED000AFA48D0EDF0
:10510000000A9DED0D0A30EE800A80ED000AF74896
:10511000D0ED000A9DED0C0A30EE800A80ED000A09
:105120000EE09FEDF30AEF4880ED000A9FEDF00AD4
:10513000ED4880ED000A9FEDEE0AEC4880ED000A94
:105140009DED0A0ADDED0E0A20EE200AE548D0EDBD
:10515000000A0FEE200ADDED1F0A30EE200A8DED69
:105160001F0A9DED0A0ADDED0D0A20EE200ADE4839
:10517000D0ED000A0FEE200ADDED1E0A30EE200A07
:105180008DED1E0A9DED0A0ADDED0C0A20EE200AC7
:10519000D648D0ED000A0FEE200ADDED1D0A30EEF4
:1051A000200A8DED1D0AB0EE000A8AEE801AB1EEDB
:1051B000490ADDED1F0A20EE200ADDED1E0A09EE88
:1051C000E00ADDED1D1AF0EE400A4AEE610AB0EE8B
:1051D000680A00EE810A8DED0B0AB0EE000ACAEEF5
:1051E000800A9DED1F0A28EE800A9DED1D1A09EE2A
:1051F000810A9DED1E1A0AEE410AF0EE49DA40EEF0
:1052000020DAB0EE000ACAEE800A9DED1E0A28EEF2
:10521000800A9DED1D1A09EE410A9DED1F1A0AEE46
:10522000010AB0EE69EA00EE20EAB0EE000ACAEE2A
:10523000800A9DED1D0A28EE800A9DED1E1A09EEDA
:10524000010A9DED1F1A09EEC10AF0EE4AEA40EE8E
:1052500020EADDED0B0A60EEA00A4DEEAD0A4EEE3F
:105260000E0A4EEEAE0AB0EE600AFFF7B6FCB0EEE4
:10527000408A9DED0B0A20EE080A84ED000A2DEE0F
:10528000880A84ED010A2EEE080A84ED020A2EEE49
:10529000880A84ED030A21B0BDEC108BF0BD10B577
:1052A0002DED108B87B00346B0EE405A0C461FED33
:1052B000970AB0EE407AB0EE000AB0EE40BA93ED35
:1052C000000AB0EE403A93ED010AF0EE403A93ED59
:1052D000020AB0EE404A93ED030AF0EE404A23EE94
:1052E000030AF0EE40BA23EE230AB0EE40CA23EEE2
:1052F000040AF0EE40CA23EE240AF0EE40FA23EE50
:10530000A30AB0EE40DA23EE840A8DED000A23EE04
:10531000A40AF0EE40DA24EE040AB0EE40EA24EEED
:10532000240AF0EE40EA24EEA40AB0EE40FA94ED2E
:10533000000A8DED060A94ED010A8DED050A94ED43
:10534000020A8DED040A92ED000A8DED030A92ED3A
:10535000010A8DED020A92ED020A8DED010A9DED22
:10536000030AB5EEC00AF1EE10FA0DD19DED020A66
:10537000B5EEC00AF1EE10FA06D19DED010AB5EEC8
:10538000C00AF1EE10FA2FD0DDED030A9DED031AED
:1053900060EE810A9DED021ADDED021A41EE210A4E
:1053A0009DED011ADDED011A41EE210AB0EE600A11
:1053B000FFF713FCF0EE402ADDED030AB0EE620ABF
:1053C00020EE800A8DED030ADDED020AB0EE620ADE
:1053D00020EE800A8DED020ADDED010AB0EE620AD0
:1053E00020EE800A8DED010A3DEEEC0AF0EE000A97
:1053F00060EE207A3CEE2E0AF0EE000A20EE208AC3
:105400003BEECD0A30EE4E0A70EE0F8A9DED020A99
:1054100020EE280ADDED010AB0EE409A00EEC89AAF
:105420009DED010A20EE270ADDED030AF0EE409A19
:1054300040EEE89A9DED030A20EE080ADDED020A2F
:10544000B0EE40AA00EEE7AAB5EEC07AF1EE10FA8F
:1054500015DD284890ED000A30EE090A80ED000ABB
:10546000254890ED000A30EE290A80ED000A234815
:1054700090ED000A30EE0A0A80ED000A0EE09FED82
:105480001C0A1C4880ED000A9FED190A1A4880ED9D
:10549000000A9FED170A194880ED000A2BEE090A51
:1054A0001448D0ED000A07EE200ADDED060A30EEC2
:1054B000200A8DED060A2BEE290A0F48D0ED000ACE
:1054C00007EE200ADDED050A30EE200A8DED050A13
:1054D0002BEE0A0A0948D0ED000A07EE200ADDED9E
:1054E000040A0DE0F4010020F8010020FC01002076
:1054F000000000000002002004020020080200203A
:1055000030EE200A8DED040AB0EE000AC5EE000A66
:10551000B1EE630A9DED061A20EE010A9DED051A13
:1055200004EE410A9DED041A04EEC10AF0EE43AA0E
:1055300040EE20AAB0EE000AC5EE000A9DED060A74
:1055400023EE000A9DED041A04EE010A9DED051AF2
:1055500004EEC10AF0EE635A40EE205AB0EE000AA3
:10556000C5EE000A9DED050A23EE000A9DED041A22
:1055700003EEC10A9DED061A04EE810AB0EE446AFC
:1055800000EE206AB0EE000AC5EE000A9DED040AA6
:1055900023EE000A9DED051A03EE810A9DED061A21
:1055A00004EE410AF0EE646A40EE206A6AEEAA0A4E
:1055B00045EEA50A46EE060A46EEA60AB0EE600AD9
:1055C000FFF70BFBF0EE402A2AEEA20A83ED000A59
:1055D00025EEA20A83ED010A26EE220A83ED020AD5
:1055E00026EEA20A83ED030A07B0BDEC108B10BDB6
:1055F0002DE9F0412DED0C8B04460D4616461F4655
:1056000094ED000AF0EE409A94ED010AF0EE408A23
:1056100094ED020AB0EE408A94ED030AB0EE409A8F
:10562000B8EE000A28EE000A20EE080AF0EE000AA2
:1056300069EE200A00EEC90AF7EE000A30EE200AF1
:1056400010EE101A084609F07FFD41EC1C0BB0EE7D
:10565000000A28EE800A20EE080AF0EE000A69EE41
:10566000A00A00EE890A10EE101A084609F06CFD37
:1056700041EC1D0BB0EE4C1AF0EE6C1AB0EE4D0A78
:10568000F0EE6D0A0AF000FDB0EE40BAF0EE60BA3E
:1056900051EC1B0B81F0004141EC1A0B09F080FD2D
:1056A0002860B8EE000A28EE800A20EE090AF0EE23
:1056B000000A69EEA00A00EE880A10EE101A0846E9
:1056C00009F042FD41EC1C0BB0EE4C0AF0EE6C0A06
:1056D0000AF026F9B0EE40BAF0EE60BA51EC1B0BBE
:1056E00081F0004141EC1A0B09F05AFD3060B8EE30
:1056F000000A28EE800A20EE280AF0EE000A68EE82
:10570000200A00EEC80AF7EE000A30EE200A10EE7A
:10571000101A084609F018FD41EC1B0BB0EE000A08
:1057200028EE000A20EE090AF0EE000A69EEA00A4F
:1057300000EEA80A10EE101A084609F005FD41EC2B
:105740001C0BB0EE4B1AF0EE6B1AB0EE4C0AF0EEFA
:105750006C0A0AF099FCB0EE40AAF0EE60AA51EC97
:105760001A0B09F01DFD3860BDEC0C8BBDE8F08113
:1057700008B5014608880090BDF8000008BD014644
:105780000868704708B5016800919DED000A08BDE2
:10579000F0B503460C461888002113E0675C80EAE8
:1057A000072000250BE0460000F4004CBCF1000F80
:1057B00003D041F2210C86EA0C0630466D1C082D00
:1057C000F1D3491C9142E9D31880F0BD2DE9F04195
:1057D00004460025002704F10E0604F5D0600021E0
:1057E000C1640165002084F8D40606E3705DB0282A
:1057F00059D008DC62287DD090280DD091287AD02D
:10580000A02879D11AE0C02877D0D02876D0D12826
:1058100075D0F028F5D111E1012084F8090290211A
:1058200094F8D426501C84F8D40604F2CC60815439
:1058300070194078C4F80C02AD1CDDE2012084F838
:105840000902A02194F8D426501C84F8D40604F24E
:10585000CC6081547019B0F9010000EE100AB8EE66
:10586000C00ADFEDFE0A80EE201A84ED841A70195A
:10587000B0F9030000EE100AB8EEC00ADFEDF70A37
:1058800080EE201A84ED851A7019B0F9050000EE3B
:10589000100AB8EEC00ADFEDF10A80EE201A84ED9E
:1058A000861AED1DA8E2012084F80902B02194F8BF
:1058B000D426501C84F8D40604F2CC6081547019AC
:1058C000B0F9010000EE100AB8EEC00AF2EE040AC8
:1058D00080EE201A84ED871A7019B0F9030000EEEB
:1058E000100AB8EEC00AF2EE040A80EE201A84ED27
:1058F000881A05E046E1B5E07CE210E044E075E09E
:105900007019B0F9050000EE100AB8EEC00AF2EE08
:10591000040A80EE201A84ED891AED1D6CE2012044
:1059200084F80902C02194F8D426501C84F8D406C7
:1059300004F2CC6081547019B0F9010000EE100A35
:10594000B8EEC00AF2EE040A80EE201A84ED8A1A3C
:105950007019B0F9030000EE100AB8EEC00AF2EEBA
:10596000040A80EE201A84ED8B1A7019B0F9050034
:1059700000EE100AB8EEC00AF2EE040A80EE201A19
:1059800084ED8C1AED1D37E2D02194F8D426501CFA
:1059900084F8D40604F2CC6081547019B0F9010087
:1059A00000EE100AB8EEC00ADFEDAD0A80EE201A54
:1059B00084ED8D1A7019B0F9030000EE100AB8EEEC
:1059C000C00ADFEDA70A80EE201A84ED8E1A701946
:1059D000B0F9050000EE100AB8EEC00AF2EE040AB3
:1059E00080EE201A84ED8F1AED1D05E2012084F867
:1059F0000902D12194F8D426501C84F8D40604F26C
:105A0000CC6081547119481CFFF7BCFE84ED900AEC
:105A10007119481DFFF7B6FE84ED910A711901F165
:105A20000900FFF7AFFE84ED920A711901F10D0034
:105A3000FFF7A8FE84ED930A1135DDE1012084F81B
:105A40000902F02194F8D426501C84F8D40604F2FC
:105A5000CC6081547119481CFFF794FE84ED940AC0
:105A60006D1DC9E1012084F80902912194F8D42622
:105A7000501C84F8D40604F2CC608154701940782C
:105A8000C4F80C027119081DFFF77CFE84ED940A1E
:105A9000711901F10800FFF772FE4FF415710851FA
:105AA000711901F10C00FFF76DFE84ED840A711984
:105AB00001F11000FFF766FE84ED850A711901F10E
:105AC0001400FFF75FFE84ED860A711901F11800DA
:105AD000FFF758FE84ED870A711901F11C00FFF7EA
